{
  "address": "0xbFB915EA59E017748b4763aC604e3d6B52ea7b5e",
  "abi": [
    {
      "inputs": [
        {
          "internalType": "uint64",
          "name": "subscriptionId",
          "type": "uint64"
        },
        {
          "internalType": "bytes32",
          "name": "keyHash",
          "type": "bytes32"
        },
        {
          "internalType": "uint32",
          "name": "callbackGasLimit",
          "type": "uint32"
        },
        {
          "internalType": "address",
          "name": "vrfCoordinator",
          "type": "address"
        },
        {
          "internalType": "string[3]",
          "name": "dogTokenUris",
          "type": "string[3]"
        },
        {
          "internalType": "uint256",
          "name": "mintFee",
          "type": "uint256"
        }
      ],
      "stateMutability": "nonpayable",
      "type": "constructor"
    },
    {
      "inputs": [
        {
          "internalType": "address",
          "name": "have",
          "type": "address"
        },
        {
          "internalType": "address",
          "name": "want",
          "type": "address"
        }
      ],
      "name": "OnlyCoordinatorCanFulfill",
      "type": "error"
    },
    {
      "inputs": [],
      "name": "RandomIpfsNft__NeedMoreEthSent",
      "type": "error"
    },
    {
      "inputs": [],
      "name": "RandomIpfsNft__RangeOutOfBounds",
      "type": "error"
    },
    {
      "inputs": [],
      "name": "RandomIpfsNft__WithdrawFailed",
      "type": "error"
    },
    {
      "anonymous": false,
      "inputs": [
        {
          "indexed": true,
          "internalType": "address",
          "name": "owner",
          "type": "address"
        },
        {
          "indexed": true,
          "internalType": "address",
          "name": "approved",
          "type": "address"
        },
        {
          "indexed": true,
          "internalType": "uint256",
          "name": "tokenId",
          "type": "uint256"
        }
      ],
      "name": "Approval",
      "type": "event"
    },
    {
      "anonymous": false,
      "inputs": [
        {
          "indexed": true,
          "internalType": "address",
          "name": "owner",
          "type": "address"
        },
        {
          "indexed": true,
          "internalType": "address",
          "name": "operator",
          "type": "address"
        },
        {
          "indexed": false,
          "internalType": "bool",
          "name": "approved",
          "type": "bool"
        }
      ],
      "name": "ApprovalForAll",
      "type": "event"
    },
    {
      "anonymous": false,
      "inputs": [
        {
          "indexed": false,
          "internalType": "enum RandomIpfsNft.Breed",
          "name": "dogBreed",
          "type": "uint8"
        },
        {
          "indexed": false,
          "internalType": "address",
          "name": "minter",
          "type": "address"
        }
      ],
      "name": "NftMinted",
      "type": "event"
    },
    {
      "anonymous": false,
      "inputs": [
        {
          "indexed": true,
          "internalType": "uint256",
          "name": "requestId",
          "type": "uint256"
        },
        {
          "indexed": false,
          "internalType": "address",
          "name": "requester",
          "type": "address"
        }
      ],
      "name": "NftRequested",
      "type": "event"
    },
    {
      "anonymous": false,
      "inputs": [
        {
          "indexed": true,
          "internalType": "address",
          "name": "previousOwner",
          "type": "address"
        },
        {
          "indexed": true,
          "internalType": "address",
          "name": "newOwner",
          "type": "address"
        }
      ],
      "name": "OwnershipTransferred",
      "type": "event"
    },
    {
      "anonymous": false,
      "inputs": [
        {
          "indexed": true,
          "internalType": "address",
          "name": "from",
          "type": "address"
        },
        {
          "indexed": true,
          "internalType": "address",
          "name": "to",
          "type": "address"
        },
        {
          "indexed": true,
          "internalType": "uint256",
          "name": "tokenId",
          "type": "uint256"
        }
      ],
      "name": "Transfer",
      "type": "event"
    },
    {
      "inputs": [
        {
          "internalType": "address",
          "name": "to",
          "type": "address"
        },
        {
          "internalType": "uint256",
          "name": "tokenId",
          "type": "uint256"
        }
      ],
      "name": "approve",
      "outputs": [],
      "stateMutability": "nonpayable",
      "type": "function"
    },
    {
      "inputs": [
        {
          "internalType": "address",
          "name": "owner",
          "type": "address"
        }
      ],
      "name": "balanceOf",
      "outputs": [
        {
          "internalType": "uint256",
          "name": "",
          "type": "uint256"
        }
      ],
      "stateMutability": "view",
      "type": "function"
    },
    {
      "inputs": [
        {
          "internalType": "uint256",
          "name": "tokenId",
          "type": "uint256"
        }
      ],
      "name": "getApproved",
      "outputs": [
        {
          "internalType": "address",
          "name": "",
          "type": "address"
        }
      ],
      "stateMutability": "view",
      "type": "function"
    },
    {
      "inputs": [
        {
          "internalType": "uint256",
          "name": "moddedRng",
          "type": "uint256"
        }
      ],
      "name": "getBreedFromModdedRng",
      "outputs": [
        {
          "internalType": "enum RandomIpfsNft.Breed",
          "name": "",
          "type": "uint8"
        }
      ],
      "stateMutability": "pure",
      "type": "function"
    },
    {
      "inputs": [],
      "name": "getCallbackGasLimit",
      "outputs": [
        {
          "internalType": "uint32",
          "name": "",
          "type": "uint32"
        }
      ],
      "stateMutability": "view",
      "type": "function"
    },
    {
      "inputs": [],
      "name": "getChanceArray",
      "outputs": [
        {
          "internalType": "uint256[3]",
          "name": "",
          "type": "uint256[3]"
        }
      ],
      "stateMutability": "pure",
      "type": "function"
    },
    {
      "inputs": [
        {
          "internalType": "uint256",
          "name": "index",
          "type": "uint256"
        }
      ],
      "name": "getDogTokenUris",
      "outputs": [
        {
          "internalType": "string",
          "name": "",
          "type": "string"
        }
      ],
      "stateMutability": "view",
      "type": "function"
    },
    {
      "inputs": [],
      "name": "getKeyHash",
      "outputs": [
        {
          "internalType": "bytes32",
          "name": "",
          "type": "bytes32"
        }
      ],
      "stateMutability": "view",
      "type": "function"
    },
    {
      "inputs": [],
      "name": "getMintFee",
      "outputs": [
        {
          "internalType": "uint256",
          "name": "",
          "type": "uint256"
        }
      ],
      "stateMutability": "view",
      "type": "function"
    },
    {
      "inputs": [],
      "name": "getOwner",
      "outputs": [
        {
          "internalType": "address",
          "name": "",
          "type": "address"
        }
      ],
      "stateMutability": "view",
      "type": "function"
    },
    {
      "inputs": [],
      "name": "getSubscriptionId",
      "outputs": [
        {
          "internalType": "uint64",
          "name": "",
          "type": "uint64"
        }
      ],
      "stateMutability": "view",
      "type": "function"
    },
    {
      "inputs": [],
      "name": "getTokenCounter",
      "outputs": [
        {
          "internalType": "uint256",
          "name": "",
          "type": "uint256"
        }
      ],
      "stateMutability": "view",
      "type": "function"
    },
    {
      "inputs": [
        {
          "internalType": "address",
          "name": "owner",
          "type": "address"
        },
        {
          "internalType": "address",
          "name": "operator",
          "type": "address"
        }
      ],
      "name": "isApprovedForAll",
      "outputs": [
        {
          "internalType": "bool",
          "name": "",
          "type": "bool"
        }
      ],
      "stateMutability": "view",
      "type": "function"
    },
    {
      "inputs": [],
      "name": "name",
      "outputs": [
        {
          "internalType": "string",
          "name": "",
          "type": "string"
        }
      ],
      "stateMutability": "view",
      "type": "function"
    },
    {
      "inputs": [],
      "name": "owner",
      "outputs": [
        {
          "internalType": "address",
          "name": "",
          "type": "address"
        }
      ],
      "stateMutability": "view",
      "type": "function"
    },
    {
      "inputs": [
        {
          "internalType": "uint256",
          "name": "tokenId",
          "type": "uint256"
        }
      ],
      "name": "ownerOf",
      "outputs": [
        {
          "internalType": "address",
          "name": "",
          "type": "address"
        }
      ],
      "stateMutability": "view",
      "type": "function"
    },
    {
      "inputs": [
        {
          "internalType": "uint256",
          "name": "requestId",
          "type": "uint256"
        },
        {
          "internalType": "uint256[]",
          "name": "randomWords",
          "type": "uint256[]"
        }
      ],
      "name": "rawFulfillRandomWords",
      "outputs": [],
      "stateMutability": "nonpayable",
      "type": "function"
    },
    {
      "inputs": [],
      "name": "renounceOwnership",
      "outputs": [],
      "stateMutability": "nonpayable",
      "type": "function"
    },
    {
      "inputs": [],
      "name": "requestNft",
      "outputs": [
        {
          "internalType": "uint256",
          "name": "requestId",
          "type": "uint256"
        }
      ],
      "stateMutability": "payable",
      "type": "function"
    },
    {
      "inputs": [
        {
          "internalType": "uint256",
          "name": "",
          "type": "uint256"
        }
      ],
      "name": "s_randomWords",
      "outputs": [
        {
          "internalType": "uint256",
          "name": "",
          "type": "uint256"
        }
      ],
      "stateMutability": "view",
      "type": "function"
    },
    {
      "inputs": [],
      "name": "s_requestId",
      "outputs": [
        {
          "internalType": "uint256",
          "name": "",
          "type": "uint256"
        }
      ],
      "stateMutability": "view",
      "type": "function"
    },
    {
      "inputs": [
        {
          "internalType": "uint256",
          "name": "",
          "type": "uint256"
        }
      ],
      "name": "s_requestIdToSender",
      "outputs": [
        {
          "internalType": "address",
          "name": "",
          "type": "address"
        }
      ],
      "stateMutability": "view",
      "type": "function"
    },
    {
      "inputs": [],
      "name": "s_tokenCounter",
      "outputs": [
        {
          "internalType": "uint256",
          "name": "",
          "type": "uint256"
        }
      ],
      "stateMutability": "view",
      "type": "function"
    },
    {
      "inputs": [
        {
          "internalType": "address",
          "name": "from",
          "type": "address"
        },
        {
          "internalType": "address",
          "name": "to",
          "type": "address"
        },
        {
          "internalType": "uint256",
          "name": "tokenId",
          "type": "uint256"
        }
      ],
      "name": "safeTransferFrom",
      "outputs": [],
      "stateMutability": "nonpayable",
      "type": "function"
    },
    {
      "inputs": [
        {
          "internalType": "address",
          "name": "from",
          "type": "address"
        },
        {
          "internalType": "address",
          "name": "to",
          "type": "address"
        },
        {
          "internalType": "uint256",
          "name": "tokenId",
          "type": "uint256"
        },
        {
          "internalType": "bytes",
          "name": "data",
          "type": "bytes"
        }
      ],
      "name": "safeTransferFrom",
      "outputs": [],
      "stateMutability": "nonpayable",
      "type": "function"
    },
    {
      "inputs": [
        {
          "internalType": "address",
          "name": "operator",
          "type": "address"
        },
        {
          "internalType": "bool",
          "name": "approved",
          "type": "bool"
        }
      ],
      "name": "setApprovalForAll",
      "outputs": [],
      "stateMutability": "nonpayable",
      "type": "function"
    },
    {
      "inputs": [
        {
          "internalType": "bytes4",
          "name": "interfaceId",
          "type": "bytes4"
        }
      ],
      "name": "supportsInterface",
      "outputs": [
        {
          "internalType": "bool",
          "name": "",
          "type": "bool"
        }
      ],
      "stateMutability": "view",
      "type": "function"
    },
    {
      "inputs": [],
      "name": "symbol",
      "outputs": [
        {
          "internalType": "string",
          "name": "",
          "type": "string"
        }
      ],
      "stateMutability": "view",
      "type": "function"
    },
    {
      "inputs": [
        {
          "internalType": "uint256",
          "name": "tokenId",
          "type": "uint256"
        }
      ],
      "name": "tokenURI",
      "outputs": [
        {
          "internalType": "string",
          "name": "",
          "type": "string"
        }
      ],
      "stateMutability": "view",
      "type": "function"
    },
    {
      "inputs": [
        {
          "internalType": "address",
          "name": "from",
          "type": "address"
        },
        {
          "internalType": "address",
          "name": "to",
          "type": "address"
        },
        {
          "internalType": "uint256",
          "name": "tokenId",
          "type": "uint256"
        }
      ],
      "name": "transferFrom",
      "outputs": [],
      "stateMutability": "nonpayable",
      "type": "function"
    },
    {
      "inputs": [
        {
          "internalType": "address",
          "name": "newOwner",
          "type": "address"
        }
      ],
      "name": "transferOwnership",
      "outputs": [],
      "stateMutability": "nonpayable",
      "type": "function"
    },
    {
      "inputs": [],
      "name": "withdraw",
      "outputs": [],
      "stateMutability": "nonpayable",
      "type": "function"
    }
  ],
  "transactionHash": "0x7348f2d77d43832b0ba3a8a7887e61b390defbd3aaee651dec96b8dff1256c68",
  "args": [
    "273",
    "0x79d3d8832d904592c0bf9818b621522c988bb8b0c05cdc3b15aea1b6e8db0c15",
    "100000",
    "0x2Ca8E0C643bDe4C2E08ab1fA0da3401AdAD7734D",
    [
      "ipfs://QmaVkBn2tKmjbhphU7eyztbvSQU5EXDdqRyXZtRhSGgJGo",
      "ipfs://QmYQC5aGZu2PTH8XzbJrbDnvhj3gVs7ya33H9mqUNvST3d",
      "ipfs://QmZYmH5iDbD6v3U2ixoVAjioSzvWJszDzYdbeCLquGSpVm"
    ],
    "250000000000000000"
  ],
  "numDeployments": 2,
  "solcInputHash": "a6eb461c47df9cbe830d8136f913b51b",
  "bytecode": "0x6101206040523480156200001257600080fd5b506040516200457f3803806200457f83398181016040528101906200003891906200083e565b6040518060400160405280600d81526020017f52616e646f6d497066734e6674000000000000000000000000000000000000008152506040518060400160405280600581526020017f52494e4654000000000000000000000000000000000000000000000000000000815250848073ffffffffffffffffffffffffffffffffffffffff1660808173ffffffffffffffffffffffffffffffffffffffff1681525050508160009080519060200190620000f2929190620002d1565b5080600190805190602001906200010b929190620002d1565b5050506200012e620001226200020360201b60201c565b6200020b60201b60201c565b8273ffffffffffffffffffffffffffffffffffffffff1660a08173ffffffffffffffffffffffffffffffffffffffff168152505033600a60006101000a81548173ffffffffffffffffffffffffffffffffffffffff021916908373ffffffffffffffffffffffffffffffffffffffff1602179055508567ffffffffffffffff166101008167ffffffffffffffff16815250508460c081815250508363ffffffff1660e08163ffffffff168152505081600d906003620001ef92919062000362565b5080600e819055505050505050506200095e565b600033905090565b6000600760009054906101000a900473ffffffffffffffffffffffffffffffffffffffff16905081600760006101000a81548173ffffffffffffffffffffffffffffffffffffffff021916908373ffffffffffffffffffffffffffffffffffffffff1602179055508173ffffffffffffffffffffffffffffffffffffffff168173ffffffffffffffffffffffffffffffffffffffff167f8be0079c531659141344cd1fd0a4f28419497f9722a3daafe3b4186f6b6457e060405160405180910390a35050565b828054620002df9062000928565b90600052602060002090601f0160209004810192826200030357600085556200034f565b82601f106200031e57805160ff19168380011785556200034f565b828001600101855582156200034f579182015b828111156200034e57825182559160200191906001019062000331565b5b5090506200035e9190620003c9565b5090565b828054828255906000526020600020908101928215620003b6579160200282015b82811115620003b5578251829080519060200190620003a4929190620002d1565b509160200191906001019062000383565b5b509050620003c59190620003e8565b5090565b5b80821115620003e4576000816000905550600101620003ca565b5090565b5b808211156200040c576000818162000402919062000410565b50600101620003e9565b5090565b5080546200041e9062000928565b6000825580601f1062000432575062000453565b601f016020900490600052602060002090810190620004529190620003c9565b5b50565b6000604051905090565b600080fd5b600080fd5b600067ffffffffffffffff82169050919050565b62000489816200046a565b81146200049557600080fd5b50565b600081519050620004a9816200047e565b92915050565b6000819050919050565b620004c481620004af565b8114620004d057600080fd5b50565b600081519050620004e481620004b9565b92915050565b600063ffffffff82169050919050565b6200050581620004ea565b81146200051157600080fd5b50565b6000815190506200052581620004fa565b92915050565b600073ffffffffffffffffffffffffffffffffffffffff82169050919050565b600062000558826200052b565b9050919050565b6200056a816200054b565b81146200057657600080fd5b50565b6000815190506200058a816200055f565b92915050565b600080fd5b6000601f19601f8301169050919050565b7f4e487b7100000000000000000000000000000000000000000000000000000000600052604160045260246000fd5b620005e08262000595565b810181811067ffffffffffffffff82111715620006025762000601620005a6565b5b80604052505050565b60006200061762000456565b9050620006258282620005d5565b919050565b600067ffffffffffffffff821115620006485762000647620005a6565b5b602082029050919050565b600080fd5b600080fd5b600067ffffffffffffffff8211156200067b576200067a620005a6565b5b620006868262000595565b9050602081019050919050565b60005b83811015620006b357808201518184015260208101905062000696565b83811115620006c3576000848401525b50505050565b6000620006e0620006da846200065d565b6200060b565b905082815260208101848484011115620006ff57620006fe62000658565b5b6200070c84828562000693565b509392505050565b600082601f8301126200072c576200072b62000590565b5b81516200073e848260208601620006c9565b91505092915050565b60006200075e62000758846200062a565b6200060b565b905080602084028301858111156200077b576200077a62000653565b5b835b81811015620007c957805167ffffffffffffffff811115620007a457620007a362000590565b5b808601620007b3898262000714565b855260208501945050506020810190506200077d565b5050509392505050565b600082601f830112620007eb57620007ea62000590565b5b6003620007fa84828562000747565b91505092915050565b6000819050919050565b620008188162000803565b81146200082457600080fd5b50565b60008151905062000838816200080d565b92915050565b60008060008060008060c087890312156200085e576200085d62000460565b5b60006200086e89828a0162000498565b96505060206200088189828a01620004d3565b95505060406200089489828a0162000514565b9450506060620008a789828a0162000579565b935050608087015167ffffffffffffffff811115620008cb57620008ca62000465565b5b620008d989828a01620007d3565b92505060a0620008ec89828a0162000827565b9150509295509295509295565b7f4e487b7100000000000000000000000000000000000000000000000000000000600052602260045260246000fd5b600060028204905060018216806200094157607f821691505b60208210811415620009585762000957620008f9565b5b50919050565b60805160a05160c05160e05161010051613bc0620009bf600039600081816111c801526114770152600081816111eb015261149f015260008181610bb501526111a70152600061116b015260008181610a930152610ae70152613bc06000f3fe6080604052600436106101e35760003560e01c80637a5caab311610102578063b88d4fde11610095578063e89e106a11610064578063e89e106a146106eb578063e985e9c514610716578063f2fde38b14610753578063f6eaffc81461077c576101e3565b8063b88d4fde1461062f578063c87b56dd14610658578063de3d9fb714610695578063de8be8e7146106c0576101e3565b8063a22cb465116100d1578063a22cb4651461056e578063a36f573b14610597578063a51cccf3146105d4578063aa15249114610611576101e3565b80637a5caab3146104c2578063893d20e8146104ed5780638da5cb5b1461051857806395d89b4114610543576101e3565b80633af259751161017a5780636352211e116101495780636352211e146104065780636e02007d1461044357806370a082311461046e578063715018a6146104ab576101e3565b80633af259751461035e5780633ccfd60b1461039b57806342842e0e146103b25780635dacf5f4146103db576101e3565b80630b21a83b116101b65780630b21a83b146102b65780631fe543e3146102e157806323b872dd1461030a578063331bf12514610333576101e3565b806301ffc9a7146101e857806306fdde0314610225578063081812fc14610250578063095ea7b31461028d575b600080fd5b3480156101f457600080fd5b5061020f600480360381019061020a919061271d565b6107b9565b60405161021c9190612765565b60405180910390f35b34801561023157600080fd5b5061023a61089b565b6040516102479190612819565b60405180910390f35b34801561025c57600080fd5b5061027760048036038101906102729190612871565b61092d565b60405161028491906128df565b60405180910390f35b34801561029957600080fd5b506102b460048036038101906102af9190612926565b610973565b005b3480156102c257600080fd5b506102cb610a8b565b6040516102d89190612975565b60405180910390f35b3480156102ed57600080fd5b5061030860048036038101906103039190612ad8565b610a91565b005b34801561031657600080fd5b50610331600480360381019061032c9190612b34565b610b51565b005b34801561033f57600080fd5b50610348610bb1565b6040516103559190612ba0565b60405180910390f35b34801561036a57600080fd5b5061038560048036038101906103809190612871565b610bd9565b6040516103929190612819565b60405180910390f35b3480156103a757600080fd5b506103b0610c89565b005b3480156103be57600080fd5b506103d960048036038101906103d49190612b34565b610d3d565b005b3480156103e757600080fd5b506103f0610d5d565b6040516103fd9190612c66565b60405180910390f35b34801561041257600080fd5b5061042d60048036038101906104289190612871565b610d88565b60405161043a91906128df565b60405180910390f35b34801561044f57600080fd5b50610458610e3a565b6040516104659190612975565b60405180910390f35b34801561047a57600080fd5b5061049560048036038101906104909190612c81565b610e44565b6040516104a29190612975565b60405180910390f35b3480156104b757600080fd5b506104c0610efc565b005b3480156104ce57600080fd5b506104d7610f10565b6040516104e49190612975565b60405180910390f35b3480156104f957600080fd5b50610502610f1a565b60405161050f91906128df565b60405180910390f35b34801561052457600080fd5b5061052d610f44565b60405161053a91906128df565b60405180910390f35b34801561054f57600080fd5b50610558610f6e565b6040516105659190612819565b60405180910390f35b34801561057a57600080fd5b5061059560048036038101906105909190612cda565b611000565b005b3480156105a357600080fd5b506105be60048036038101906105b99190612871565b611016565b6040516105cb91906128df565b60405180910390f35b3480156105e057600080fd5b506105fb60048036038101906105f69190612871565b611049565b6040516106089190612d91565b60405180910390f35b61061961112b565b6040516106269190612975565b60405180910390f35b34801561063b57600080fd5b5061065660048036038101906106519190612e61565b6112fe565b005b34801561066457600080fd5b5061067f600480360381019061067a9190612871565b611360565b60405161068c9190612819565b60405180910390f35b3480156106a157600080fd5b506106aa611473565b6040516106b79190612f07565b60405180910390f35b3480156106cc57600080fd5b506106d561149b565b6040516106e29190612f41565b60405180910390f35b3480156106f757600080fd5b506107006114c3565b60405161070d9190612975565b60405180910390f35b34801561072257600080fd5b5061073d60048036038101906107389190612f5c565b6114c9565b60405161074a9190612765565b60405180910390f35b34801561075f57600080fd5b5061077a60048036038101906107759190612c81565b61155d565b005b34801561078857600080fd5b506107a3600480360381019061079e9190612871565b6115e1565b6040516107b09190612975565b60405180910390f35b60007f80ac58cd000000000000000000000000000000000000000000000000000000007bffffffffffffffffffffffffffffffffffffffffffffffffffffffff1916827bffffffffffffffffffffffffffffffffffffffffffffffffffffffff1916148061088457507f5b5e139f000000000000000000000000000000000000000000000000000000007bffffffffffffffffffffffffffffffffffffffffffffffffffffffff1916827bffffffffffffffffffffffffffffffffffffffffffffffffffffffff1916145b80610894575061089382611605565b5b9050919050565b6060600080546108aa90612fcb565b80601f01602080910402602001604051908101604052809291908181526020018280546108d690612fcb565b80156109235780601f106108f857610100808354040283529160200191610923565b820191906000526020600020905b81548152906001019060200180831161090657829003601f168201915b5050505050905090565b60006109388261166f565b6004600083815260200190815260200160002060009054906101000a900473ffffffffffffffffffffffffffffffffffffffff169050919050565b600061097e82610d88565b90508073ffffffffffffffffffffffffffffffffffffffff168373ffffffffffffffffffffffffffffffffffffffff1614156109ef576040517f08c379a00000000000000000000000000000000000000000000000000000000081526004016109e69061306f565b60405180910390fd5b8073ffffffffffffffffffffffffffffffffffffffff16610a0e6116ba565b73ffffffffffffffffffffffffffffffffffffffff161480610a3d5750610a3c81610a376116ba565b6114c9565b5b610a7c576040517f08c379a0000000000000000000000000000000000000000000000000000000008152600401610a7390613101565b60405180910390fd5b610a8683836116c2565b505050565b600c5481565b7f000000000000000000000000000000000000000000000000000000000000000073ffffffffffffffffffffffffffffffffffffffff163373ffffffffffffffffffffffffffffffffffffffff1614610b4357337f00000000000000000000000000000000000000000000000000000000000000006040517f1cf993f4000000000000000000000000000000000000000000000000000000008152600401610b3a929190613121565b60405180910390fd5b610b4d828261177b565b5050565b610b62610b5c6116ba565b8261191b565b610ba1576040517f08c379a0000000000000000000000000000000000000000000000000000000008152600401610b98906131bc565b60405180910390fd5b610bac8383836119b0565b505050565b60007f0000000000000000000000000000000000000000000000000000000000000000905090565b6060600d8281548110610bef57610bee6131dc565b5b906000526020600020018054610c0490612fcb565b80601f0160208091040260200160405190810160405280929190818152602001828054610c3090612fcb565b8015610c7d5780601f10610c5257610100808354040283529160200191610c7d565b820191906000526020600020905b815481529060010190602001808311610c6057829003601f168201915b50505050509050919050565b610c91611c17565b600047905060003373ffffffffffffffffffffffffffffffffffffffff1682604051610cbc9061323c565b60006040518083038185875af1925050503d8060008114610cf9576040519150601f19603f3d011682016040523d82523d6000602084013e610cfe565b606091505b5050905080610d39576040517f61746da100000000000000000000000000000000000000000000000000000000815260040160405180910390fd5b5050565b610d58838383604051806020016040528060008152506112fe565b505050565b610d656125ec565b6040518060600160405280600a8152602001601e81526020016064815250905090565b6000806002600084815260200190815260200160002060009054906101000a900473ffffffffffffffffffffffffffffffffffffffff169050600073ffffffffffffffffffffffffffffffffffffffff168173ffffffffffffffffffffffffffffffffffffffff161415610e31576040517f08c379a0000000000000000000000000000000000000000000000000000000008152600401610e289061329d565b60405180910390fd5b80915050919050565b6000600c54905090565b60008073ffffffffffffffffffffffffffffffffffffffff168273ffffffffffffffffffffffffffffffffffffffff161415610eb5576040517f08c379a0000000000000000000000000000000000000000000000000000000008152600401610eac9061332f565b60405180910390fd5b600360008373ffffffffffffffffffffffffffffffffffffffff1673ffffffffffffffffffffffffffffffffffffffff168152602001908152602001600020549050919050565b610f04611c17565b610f0e6000611c95565b565b6000600e54905090565b6000600a60009054906101000a900473ffffffffffffffffffffffffffffffffffffffff16905090565b6000600760009054906101000a900473ffffffffffffffffffffffffffffffffffffffff16905090565b606060018054610f7d90612fcb565b80601f0160208091040260200160405190810160405280929190818152602001828054610fa990612fcb565b8015610ff65780601f10610fcb57610100808354040283529160200191610ff6565b820191906000526020600020905b815481529060010190602001808311610fd957829003601f168201915b5050505050905090565b61101261100b6116ba565b8383611d5b565b5050565b600b6020528060005260406000206000915054906101000a900473ffffffffffffffffffffffffffffffffffffffff1681565b60008060009050600061105a610d5d565b905060005b60038110156110f3578285101580156110995750818160038110611086576110856131dc565b5b602002015183611096919061337e565b85105b156110bb578060028111156110b1576110b0612d1a565b5b9350505050611126565b8181600381106110ce576110cd6131dc565b5b6020020151836110de919061337e565b925080806110eb906133d4565b91505061105f565b506040517f12806c9d00000000000000000000000000000000000000000000000000000000815260040160405180910390fd5b919050565b6000600e54341015611169576040517ff64fbfee00000000000000000000000000000000000000000000000000000000815260040160405180910390fd5b7f000000000000000000000000000000000000000000000000000000000000000073ffffffffffffffffffffffffffffffffffffffff16635d3b1d307f00000000000000000000000000000000000000000000000000000000000000007f000000000000000000000000000000000000000000000000000000000000000060037f000000000000000000000000000000000000000000000000000000000000000060016040518663ffffffff1660e01b815260040161122c95949392919061343a565b6020604051808303816000875af115801561124b573d6000803e3d6000fd5b505050506040513d601f19601f8201168201806040525081019061126f91906134a2565b905033600b600083815260200190815260200160002060006101000a81548173ffffffffffffffffffffffffffffffffffffffff021916908373ffffffffffffffffffffffffffffffffffffffff160217905550807ff873236e6cc0ecc5be1a9a35c95ee5b8d1ac4cc7bfef0cc5060391d6cc98e26b336040516112f391906128df565b60405180910390a290565b61130f6113096116ba565b8361191b565b61134e576040517f08c379a0000000000000000000000000000000000000000000000000000000008152600401611345906131bc565b60405180910390fd5b61135a84848484611ec8565b50505050565b606061136b8261166f565b600060066000848152602001908152602001600020805461138b90612fcb565b80601f01602080910402602001604051908101604052809291908181526020018280546113b790612fcb565b80156114045780601f106113d957610100808354040283529160200191611404565b820191906000526020600020905b8154815290600101906020018083116113e757829003601f168201915b505050505090506000611415611f24565b905060008151141561142b57819250505061146e565b60008251111561146057808260405160200161144892919061350b565b6040516020818303038152906040529250505061146e565b61146984611f3b565b925050505b919050565b60007f0000000000000000000000000000000000000000000000000000000000000000905090565b60007f0000000000000000000000000000000000000000000000000000000000000000905090565b60095481565b6000600560008473ffffffffffffffffffffffffffffffffffffffff1673ffffffffffffffffffffffffffffffffffffffff16815260200190815260200160002060008373ffffffffffffffffffffffffffffffffffffffff1673ffffffffffffffffffffffffffffffffffffffff16815260200190815260200160002060009054906101000a900460ff16905092915050565b611565611c17565b600073ffffffffffffffffffffffffffffffffffffffff168173ffffffffffffffffffffffffffffffffffffffff1614156115d5576040517f08c379a00000000000000000000000000000000000000000000000000000000081526004016115cc906135a1565b60405180910390fd5b6115de81611c95565b50565b600881815481106115f157600080fd5b906000526020600020016000915090505481565b60007f01ffc9a7000000000000000000000000000000000000000000000000000000007bffffffffffffffffffffffffffffffffffffffffffffffffffffffff1916827bffffffffffffffffffffffffffffffffffffffffffffffffffffffff1916149050919050565b61167881611fa3565b6116b7576040517f08c379a00000000000000000000000000000000000000000000000000000000081526004016116ae9061329d565b60405180910390fd5b50565b600033905090565b816004600083815260200190815260200160002060006101000a81548173ffffffffffffffffffffffffffffffffffffffff021916908373ffffffffffffffffffffffffffffffffffffffff160217905550808273ffffffffffffffffffffffffffffffffffffffff1661173583610d88565b73ffffffffffffffffffffffffffffffffffffffff167f8c5be1e5ebec7d5bd14f71427d1e84f3dd0314c0f7b2291e5b200ac8c7c3b92560405160405180910390a45050565b6000600b600084815260200190815260200160002060009054906101000a900473ffffffffffffffffffffffffffffffffffffffff1690506000600c54905060006064846000815181106117d2576117d16131dc565b5b60200260200101516117e491906135f0565b905060006117f182611049565b9050600c54600c6000828254611807919061337e565b92505081905550611818848461200f565b6118da83600d83600281111561183157611830612d1a565b5b81548110611842576118416131dc565b5b90600052602060002001805461185790612fcb565b80601f016020809104026020016040519081016040528092919081815260200182805461188390612fcb565b80156118d05780601f106118a5576101008083540402835291602001916118d0565b820191906000526020600020905b8154815290600101906020018083116118b357829003601f168201915b505050505061202d565b7f8a269f26b688e110e9cbd887d163dab35cae678fa353a0292de532c0cac1ecdc818560405161190b929190613621565b60405180910390a1505050505050565b60008061192783610d88565b90508073ffffffffffffffffffffffffffffffffffffffff168473ffffffffffffffffffffffffffffffffffffffff161480611969575061196881856114c9565b5b806119a757508373ffffffffffffffffffffffffffffffffffffffff1661198f8461092d565b73ffffffffffffffffffffffffffffffffffffffff16145b91505092915050565b8273ffffffffffffffffffffffffffffffffffffffff166119d082610d88565b73ffffffffffffffffffffffffffffffffffffffff1614611a26576040517f08c379a0000000000000000000000000000000000000000000000000000000008152600401611a1d906136bc565b60405180910390fd5b600073ffffffffffffffffffffffffffffffffffffffff168273ffffffffffffffffffffffffffffffffffffffff161415611a96576040517f08c379a0000000000000000000000000000000000000000000000000000000008152600401611a8d9061374e565b60405180910390fd5b611aa18383836120a1565b611aac6000826116c2565b6001600360008573ffffffffffffffffffffffffffffffffffffffff1673ffffffffffffffffffffffffffffffffffffffff1681526020019081526020016000206000828254611afc919061376e565b925050819055506001600360008473ffffffffffffffffffffffffffffffffffffffff1673ffffffffffffffffffffffffffffffffffffffff1681526020019081526020016000206000828254611b53919061337e565b92505081905550816002600083815260200190815260200160002060006101000a81548173ffffffffffffffffffffffffffffffffffffffff021916908373ffffffffffffffffffffffffffffffffffffffff160217905550808273ffffffffffffffffffffffffffffffffffffffff168473ffffffffffffffffffffffffffffffffffffffff167fddf252ad1be2c89b69c2b068fc378daa952ba7f163c4a11628f55a4df523b3ef60405160405180910390a4611c128383836120a6565b505050565b611c1f6116ba565b73ffffffffffffffffffffffffffffffffffffffff16611c3d610f44565b73ffffffffffffffffffffffffffffffffffffffff1614611c93576040517f08c379a0000000000000000000000000000000000000000000000000000000008152600401611c8a906137ee565b60405180910390fd5b565b6000600760009054906101000a900473ffffffffffffffffffffffffffffffffffffffff16905081600760006101000a81548173ffffffffffffffffffffffffffffffffffffffff021916908373ffffffffffffffffffffffffffffffffffffffff1602179055508173ffffffffffffffffffffffffffffffffffffffff168173ffffffffffffffffffffffffffffffffffffffff167f8be0079c531659141344cd1fd0a4f28419497f9722a3daafe3b4186f6b6457e060405160405180910390a35050565b8173ffffffffffffffffffffffffffffffffffffffff168373ffffffffffffffffffffffffffffffffffffffff161415611dca576040517f08c379a0000000000000000000000000000000000000000000000000000000008152600401611dc19061385a565b60405180910390fd5b80600560008573ffffffffffffffffffffffffffffffffffffffff1673ffffffffffffffffffffffffffffffffffffffff16815260200190815260200160002060008473ffffffffffffffffffffffffffffffffffffffff1673ffffffffffffffffffffffffffffffffffffffff16815260200190815260200160002060006101000a81548160ff0219169083151502179055508173ffffffffffffffffffffffffffffffffffffffff168373ffffffffffffffffffffffffffffffffffffffff167f17307eab39ab6107e8899845ad3d59bd9653f200f220920489ca2b5937696c3183604051611ebb9190612765565b60405180910390a3505050565b611ed38484846119b0565b611edf848484846120ab565b611f1e576040517f08c379a0000000000000000000000000000000000000000000000000000000008152600401611f15906138ec565b60405180910390fd5b50505050565b606060405180602001604052806000815250905090565b6060611f468261166f565b6000611f50611f24565b90506000815111611f705760405180602001604052806000815250611f9b565b80611f7a84612233565b604051602001611f8b92919061350b565b6040516020818303038152906040525b915050919050565b60008073ffffffffffffffffffffffffffffffffffffffff166002600084815260200190815260200160002060009054906101000a900473ffffffffffffffffffffffffffffffffffffffff1673ffffffffffffffffffffffffffffffffffffffff1614159050919050565b612029828260405180602001604052806000815250612394565b5050565b61203682611fa3565b612075576040517f08c379a000000000000000000000000000000000000000000000000000000000815260040161206c9061397e565b60405180910390fd5b8060066000848152602001908152602001600020908051906020019061209c92919061260e565b505050565b505050565b505050565b60006120cc8473ffffffffffffffffffffffffffffffffffffffff166123ef565b15612226578373ffffffffffffffffffffffffffffffffffffffff1663150b7a026120f56116ba565b8786866040518563ffffffff1660e01b815260040161211794939291906139f3565b6020604051808303816000875af192505050801561215357506040513d601f19601f820116820180604052508101906121509190613a54565b60015b6121d6573d8060008114612183576040519150601f19603f3d011682016040523d82523d6000602084013e612188565b606091505b506000815114156121ce576040517f08c379a00000000000000000000000000000000000000000000000000000000081526004016121c5906138ec565b60405180910390fd5b805181602001fd5b63150b7a0260e01b7bffffffffffffffffffffffffffffffffffffffffffffffffffffffff1916817bffffffffffffffffffffffffffffffffffffffffffffffffffffffff19161491505061222b565b600190505b949350505050565b6060600082141561227b576040518060400160405280600181526020017f3000000000000000000000000000000000000000000000000000000000000000815250905061238f565b600082905060005b600082146122ad578080612296906133d4565b915050600a826122a69190613a81565b9150612283565b60008167ffffffffffffffff8111156122c9576122c8612995565b5b6040519080825280601f01601f1916602001820160405280156122fb5781602001600182028036833780820191505090505b5090505b6000851461238857600182612314919061376e565b9150600a8561232391906135f0565b603061232f919061337e565b60f81b818381518110612345576123446131dc565b5b60200101907effffffffffffffffffffffffffffffffffffffffffffffffffffffffffffff1916908160001a905350600a856123819190613a81565b94506122ff565b8093505050505b919050565b61239e8383612412565b6123ab60008484846120ab565b6123ea576040517f08c379a00000000000000000000000000000000000000000000000000000000081526004016123e1906138ec565b60405180910390fd5b505050565b6000808273ffffffffffffffffffffffffffffffffffffffff163b119050919050565b600073ffffffffffffffffffffffffffffffffffffffff168273ffffffffffffffffffffffffffffffffffffffff161415612482576040517f08c379a000000000000000000000000000000000000000000000000000000000815260040161247990613afe565b60405180910390fd5b61248b81611fa3565b156124cb576040517f08c379a00000000000000000000000000000000000000000000000000000000081526004016124c290613b6a565b60405180910390fd5b6124d7600083836120a1565b6001600360008473ffffffffffffffffffffffffffffffffffffffff1673ffffffffffffffffffffffffffffffffffffffff1681526020019081526020016000206000828254612527919061337e565b92505081905550816002600083815260200190815260200160002060006101000a81548173ffffffffffffffffffffffffffffffffffffffff021916908373ffffffffffffffffffffffffffffffffffffffff160217905550808273ffffffffffffffffffffffffffffffffffffffff16600073ffffffffffffffffffffffffffffffffffffffff167fddf252ad1be2c89b69c2b068fc378daa952ba7f163c4a11628f55a4df523b3ef60405160405180910390a46125e8600083836120a6565b5050565b6040518060600160405280600390602082028036833780820191505090505090565b82805461261a90612fcb565b90600052602060002090601f01602090048101928261263c5760008555612683565b82601f1061265557805160ff1916838001178555612683565b82800160010185558215612683579182015b82811115612682578251825591602001919060010190612667565b5b5090506126909190612694565b5090565b5b808211156126ad576000816000905550600101612695565b5090565b6000604051905090565b600080fd5b600080fd5b60007fffffffff0000000000000000000000000000000000000000000000000000000082169050919050565b6126fa816126c5565b811461270557600080fd5b50565b600081359050612717816126f1565b92915050565b600060208284031215612733576127326126bb565b5b600061274184828501612708565b91505092915050565b60008115159050919050565b61275f8161274a565b82525050565b600060208201905061277a6000830184612756565b92915050565b600081519050919050565b600082825260208201905092915050565b60005b838110156127ba57808201518184015260208101905061279f565b838111156127c9576000848401525b50505050565b6000601f19601f8301169050919050565b60006127eb82612780565b6127f5818561278b565b935061280581856020860161279c565b61280e816127cf565b840191505092915050565b6000602082019050818103600083015261283381846127e0565b905092915050565b6000819050919050565b61284e8161283b565b811461285957600080fd5b50565b60008135905061286b81612845565b92915050565b600060208284031215612887576128866126bb565b5b60006128958482850161285c565b91505092915050565b600073ffffffffffffffffffffffffffffffffffffffff82169050919050565b60006128c98261289e565b9050919050565b6128d9816128be565b82525050565b60006020820190506128f460008301846128d0565b92915050565b612903816128be565b811461290e57600080fd5b50565b600081359050612920816128fa565b92915050565b6000806040838503121561293d5761293c6126bb565b5b600061294b85828601612911565b925050602061295c8582860161285c565b9150509250929050565b61296f8161283b565b82525050565b600060208201905061298a6000830184612966565b92915050565b600080fd5b7f4e487b7100000000000000000000000000000000000000000000000000000000600052604160045260246000fd5b6129cd826127cf565b810181811067ffffffffffffffff821117156129ec576129eb612995565b5b80604052505050565b60006129ff6126b1565b9050612a0b82826129c4565b919050565b600067ffffffffffffffff821115612a2b57612a2a612995565b5b602082029050602081019050919050565b600080fd5b6000612a54612a4f84612a10565b6129f5565b90508083825260208201905060208402830185811115612a7757612a76612a3c565b5b835b81811015612aa05780612a8c888261285c565b845260208401935050602081019050612a79565b5050509392505050565b600082601f830112612abf57612abe612990565b5b8135612acf848260208601612a41565b91505092915050565b60008060408385031215612aef57612aee6126bb565b5b6000612afd8582860161285c565b925050602083013567ffffffffffffffff811115612b1e57612b1d6126c0565b5b612b2a85828601612aaa565b9150509250929050565b600080600060608486031215612b4d57612b4c6126bb565b5b6000612b5b86828701612911565b9350506020612b6c86828701612911565b9250506040612b7d8682870161285c565b9150509250925092565b6000819050919050565b612b9a81612b87565b82525050565b6000602082019050612bb56000830184612b91565b92915050565b600060039050919050565b600081905092915050565b6000819050919050565b612be48161283b565b82525050565b6000612bf68383612bdb565b60208301905092915050565b6000602082019050919050565b612c1881612bbb565b612c228184612bc6565b9250612c2d82612bd1565b8060005b83811015612c5e578151612c458782612bea565b9650612c5083612c02565b925050600181019050612c31565b505050505050565b6000606082019050612c7b6000830184612c0f565b92915050565b600060208284031215612c9757612c966126bb565b5b6000612ca584828501612911565b91505092915050565b612cb78161274a565b8114612cc257600080fd5b50565b600081359050612cd481612cae565b92915050565b60008060408385031215612cf157612cf06126bb565b5b6000612cff85828601612911565b9250506020612d1085828601612cc5565b9150509250929050565b7f4e487b7100000000000000000000000000000000000000000000000000000000600052602160045260246000fd5b60038110612d5a57612d59612d1a565b5b50565b6000819050612d6b82612d49565b919050565b6000612d7b82612d5d565b9050919050565b612d8b81612d70565b82525050565b6000602082019050612da66000830184612d82565b92915050565b600080fd5b600067ffffffffffffffff821115612dcc57612dcb612995565b5b612dd5826127cf565b9050602081019050919050565b82818337600083830152505050565b6000612e04612dff84612db1565b6129f5565b905082815260208101848484011115612e2057612e1f612dac565b5b612e2b848285612de2565b509392505050565b600082601f830112612e4857612e47612990565b5b8135612e58848260208601612df1565b91505092915050565b60008060008060808587031215612e7b57612e7a6126bb565b5b6000612e8987828801612911565b9450506020612e9a87828801612911565b9350506040612eab8782880161285c565b925050606085013567ffffffffffffffff811115612ecc57612ecb6126c0565b5b612ed887828801612e33565b91505092959194509250565b600067ffffffffffffffff82169050919050565b612f0181612ee4565b82525050565b6000602082019050612f1c6000830184612ef8565b92915050565b600063ffffffff82169050919050565b612f3b81612f22565b82525050565b6000602082019050612f566000830184612f32565b92915050565b60008060408385031215612f7357612f726126bb565b5b6000612f8185828601612911565b9250506020612f9285828601612911565b9150509250929050565b7f4e487b7100000000000000000000000000000000000000000000000000000000600052602260045260246000fd5b60006002820490506001821680612fe357607f821691505b60208210811415612ff757612ff6612f9c565b5b50919050565b7f4552433732313a20617070726f76616c20746f2063757272656e74206f776e6560008201527f7200000000000000000000000000000000000000000000000000000000000000602082015250565b600061305960218361278b565b915061306482612ffd565b604082019050919050565b600060208201905081810360008301526130888161304c565b9050919050565b7f4552433732313a20617070726f76652063616c6c6572206973206e6f7420746f60008201527f6b656e206f776e6572206e6f7220617070726f76656420666f7220616c6c0000602082015250565b60006130eb603e8361278b565b91506130f68261308f565b604082019050919050565b6000602082019050818103600083015261311a816130de565b9050919050565b600060408201905061313660008301856128d0565b61314360208301846128d0565b9392505050565b7f4552433732313a2063616c6c6572206973206e6f7420746f6b656e206f776e6560008201527f72206e6f7220617070726f766564000000000000000000000000000000000000602082015250565b60006131a6602e8361278b565b91506131b18261314a565b604082019050919050565b600060208201905081810360008301526131d581613199565b9050919050565b7f4e487b7100000000000000000000000000000000000000000000000000000000600052603260045260246000fd5b600081905092915050565b50565b600061322660008361320b565b915061323182613216565b600082019050919050565b600061324782613219565b9150819050919050565b7f4552433732313a20696e76616c696420746f6b656e2049440000000000000000600082015250565b600061328760188361278b565b915061329282613251565b602082019050919050565b600060208201905081810360008301526132b68161327a565b9050919050565b7f4552433732313a2061646472657373207a65726f206973206e6f74206120766160008201527f6c6964206f776e65720000000000000000000000000000000000000000000000602082015250565b600061331960298361278b565b9150613324826132bd565b604082019050919050565b600060208201905081810360008301526133488161330c565b9050919050565b7f4e487b7100000000000000000000000000000000000000000000000000000000600052601160045260246000fd5b60006133898261283b565b91506133948361283b565b9250827fffffffffffffffffffffffffffffffffffffffffffffffffffffffffffffffff038211156133c9576133c861334f565b5b828201905092915050565b60006133df8261283b565b91507fffffffffffffffffffffffffffffffffffffffffffffffffffffffffffffffff8214156134125761341161334f565b5b600182019050919050565b600061ffff82169050919050565b6134348161341d565b82525050565b600060a08201905061344f6000830188612b91565b61345c6020830187612ef8565b613469604083018661342b565b6134766060830185612f32565b6134836080830184612f32565b9695505050505050565b60008151905061349c81612845565b92915050565b6000602082840312156134b8576134b76126bb565b5b60006134c68482850161348d565b91505092915050565b600081905092915050565b60006134e582612780565b6134ef81856134cf565b93506134ff81856020860161279c565b80840191505092915050565b600061351782856134da565b915061352382846134da565b91508190509392505050565b7f4f776e61626c653a206e6577206f776e657220697320746865207a65726f206160008201527f6464726573730000000000000000000000000000000000000000000000000000602082015250565b600061358b60268361278b565b91506135968261352f565b604082019050919050565b600060208201905081810360008301526135ba8161357e565b9050919050565b7f4e487b7100000000000000000000000000000000000000000000000000000000600052601260045260246000fd5b60006135fb8261283b565b91506136068361283b565b925082613616576136156135c1565b5b828206905092915050565b60006040820190506136366000830185612d82565b61364360208301846128d0565b9392505050565b7f4552433732313a207472616e736665722066726f6d20696e636f72726563742060008201527f6f776e6572000000000000000000000000000000000000000000000000000000602082015250565b60006136a660258361278b565b91506136b18261364a565b604082019050919050565b600060208201905081810360008301526136d581613699565b9050919050565b7f4552433732313a207472616e7366657220746f20746865207a65726f2061646460008201527f7265737300000000000000000000000000000000000000000000000000000000602082015250565b600061373860248361278b565b9150613743826136dc565b604082019050919050565b600060208201905081810360008301526137678161372b565b9050919050565b60006137798261283b565b91506137848361283b565b9250828210156137975761379661334f565b5b828203905092915050565b7f4f776e61626c653a2063616c6c6572206973206e6f7420746865206f776e6572600082015250565b60006137d860208361278b565b91506137e3826137a2565b602082019050919050565b60006020820190508181036000830152613807816137cb565b9050919050565b7f4552433732313a20617070726f766520746f2063616c6c657200000000000000600082015250565b600061384460198361278b565b915061384f8261380e565b602082019050919050565b6000602082019050818103600083015261387381613837565b9050919050565b7f4552433732313a207472616e7366657220746f206e6f6e20455243373231526560008201527f63656976657220696d706c656d656e7465720000000000000000000000000000602082015250565b60006138d660328361278b565b91506138e18261387a565b604082019050919050565b60006020820190508181036000830152613905816138c9565b9050919050565b7f45524337323155524953746f726167653a2055524920736574206f66206e6f6e60008201527f6578697374656e7420746f6b656e000000000000000000000000000000000000602082015250565b6000613968602e8361278b565b91506139738261390c565b604082019050919050565b600060208201905081810360008301526139978161395b565b9050919050565b600081519050919050565b600082825260208201905092915050565b60006139c58261399e565b6139cf81856139a9565b93506139df81856020860161279c565b6139e8816127cf565b840191505092915050565b6000608082019050613a0860008301876128d0565b613a1560208301866128d0565b613a226040830185612966565b8181036060830152613a3481846139ba565b905095945050505050565b600081519050613a4e816126f1565b92915050565b600060208284031215613a6a57613a696126bb565b5b6000613a7884828501613a3f565b91505092915050565b6000613a8c8261283b565b9150613a978361283b565b925082613aa757613aa66135c1565b5b828204905092915050565b7f4552433732313a206d696e7420746f20746865207a65726f2061646472657373600082015250565b6000613ae860208361278b565b9150613af382613ab2565b602082019050919050565b60006020820190508181036000830152613b1781613adb565b9050919050565b7f4552433732313a20746f6b656e20616c7265616479206d696e74656400000000600082015250565b6000613b54601c8361278b565b9150613b5f82613b1e565b602082019050919050565b60006020820190508181036000830152613b8381613b47565b905091905056fea2646970667358221220203fc71013d60c6aeb109b48b2c956e959e416e3c64f6225eccdeef6c46f922d64736f6c634300080a0033",
  "devdoc": {
    "kind": "dev",
    "methods": {
      "approve(address,uint256)": {
        "details": "See {IERC721-approve}."
      },
      "balanceOf(address)": {
        "details": "See {IERC721-balanceOf}."
      },
      "getApproved(uint256)": {
        "details": "See {IERC721-getApproved}."
      },
      "isApprovedForAll(address,address)": {
        "details": "See {IERC721-isApprovedForAll}."
      },
      "name()": {
        "details": "See {IERC721Metadata-name}."
      },
      "owner()": {
        "details": "Returns the address of the current owner."
      },
      "ownerOf(uint256)": {
        "details": "See {IERC721-ownerOf}."
      },
      "renounceOwnership()": {
        "details": "Leaves the contract without owner. It will not be possible to call `onlyOwner` functions anymore. Can only be called by the current owner. NOTE: Renouncing ownership will leave the contract without an owner, thereby removing any functionality that is only available to the owner."
      },
      "safeTransferFrom(address,address,uint256)": {
        "details": "See {IERC721-safeTransferFrom}."
      },
      "safeTransferFrom(address,address,uint256,bytes)": {
        "details": "See {IERC721-safeTransferFrom}."
      },
      "setApprovalForAll(address,bool)": {
        "details": "See {IERC721-setApprovalForAll}."
      },
      "supportsInterface(bytes4)": {
        "details": "See {IERC165-supportsInterface}."
      },
      "symbol()": {
        "details": "See {IERC721Metadata-symbol}."
      },
      "tokenURI(uint256)": {
        "details": "See {IERC721Metadata-tokenURI}."
      },
      "transferFrom(address,address,uint256)": {
        "details": "See {IERC721-transferFrom}."
      },
      "transferOwnership(address)": {
        "details": "Transfers ownership of the contract to a new account (`newOwner`). Can only be called by the current owner."
      }
    },
    "version": 1
  },
  "userdoc": {
    "kind": "user",
    "methods": {},
    "version": 1
  },
  "storageLayout": {
    "storage": [
      {
        "astId": 1250,
        "contract": "contracts/RandomIpfsNft.sol:RandomIpfsNft",
        "label": "_name",
        "offset": 0,
        "slot": "0",
        "type": "t_string_storage"
      },
      {
        "astId": 1252,
        "contract": "contracts/RandomIpfsNft.sol:RandomIpfsNft",
        "label": "_symbol",
        "offset": 0,
        "slot": "1",
        "type": "t_string_storage"
      },
      {
        "astId": 1256,
        "contract": "contracts/RandomIpfsNft.sol:RandomIpfsNft",
        "label": "_owners",
        "offset": 0,
        "slot": "2",
        "type": "t_mapping(t_uint256,t_address)"
      },
      {
        "astId": 1260,
        "contract": "contracts/RandomIpfsNft.sol:RandomIpfsNft",
        "label": "_balances",
        "offset": 0,
        "slot": "3",
        "type": "t_mapping(t_address,t_uint256)"
      },
      {
        "astId": 1264,
        "contract": "contracts/RandomIpfsNft.sol:RandomIpfsNft",
        "label": "_tokenApprovals",
        "offset": 0,
        "slot": "4",
        "type": "t_mapping(t_uint256,t_address)"
      },
      {
        "astId": 1270,
        "contract": "contracts/RandomIpfsNft.sol:RandomIpfsNft",
        "label": "_operatorApprovals",
        "offset": 0,
        "slot": "5",
        "type": "t_mapping(t_address,t_mapping(t_address,t_bool))"
      },
      {
        "astId": 2238,
        "contract": "contracts/RandomIpfsNft.sol:RandomIpfsNft",
        "label": "_tokenURIs",
        "offset": 0,
        "slot": "6",
        "type": "t_mapping(t_uint256,t_string_storage)"
      },
      {
        "astId": 1119,
        "contract": "contracts/RandomIpfsNft.sol:RandomIpfsNft",
        "label": "_owner",
        "offset": 0,
        "slot": "7",
        "type": "t_address"
      },
      {
        "astId": 3044,
        "contract": "contracts/RandomIpfsNft.sol:RandomIpfsNft",
        "label": "s_randomWords",
        "offset": 0,
        "slot": "8",
        "type": "t_array(t_uint256)dyn_storage"
      },
      {
        "astId": 3046,
        "contract": "contracts/RandomIpfsNft.sol:RandomIpfsNft",
        "label": "s_requestId",
        "offset": 0,
        "slot": "9",
        "type": "t_uint256"
      },
      {
        "astId": 3048,
        "contract": "contracts/RandomIpfsNft.sol:RandomIpfsNft",
        "label": "s_owner",
        "offset": 0,
        "slot": "10",
        "type": "t_address"
      },
      {
        "astId": 3064,
        "contract": "contracts/RandomIpfsNft.sol:RandomIpfsNft",
        "label": "s_requestIdToSender",
        "offset": 0,
        "slot": "11",
        "type": "t_mapping(t_uint256,t_address)"
      },
      {
        "astId": 3066,
        "contract": "contracts/RandomIpfsNft.sol:RandomIpfsNft",
        "label": "s_tokenCounter",
        "offset": 0,
        "slot": "12",
        "type": "t_uint256"
      },
      {
        "astId": 3072,
        "contract": "contracts/RandomIpfsNft.sol:RandomIpfsNft",
        "label": "s_dogTokenUris",
        "offset": 0,
        "slot": "13",
        "type": "t_array(t_string_storage)dyn_storage"
      },
      {
        "astId": 3074,
        "contract": "contracts/RandomIpfsNft.sol:RandomIpfsNft",
        "label": "i_mintFee",
        "offset": 0,
        "slot": "14",
        "type": "t_uint256"
      }
    ],
    "types": {
      "t_address": {
        "encoding": "inplace",
        "label": "address",
        "numberOfBytes": "20"
      },
      "t_array(t_string_storage)dyn_storage": {
        "base": "t_string_storage",
        "encoding": "dynamic_array",
        "label": "string[]",
        "numberOfBytes": "32"
      },
      "t_array(t_uint256)dyn_storage": {
        "base": "t_uint256",
        "encoding": "dynamic_array",
        "label": "uint256[]",
        "numberOfBytes": "32"
      },
      "t_bool": {
        "encoding": "inplace",
        "label": "bool",
        "numberOfBytes": "1"
      },
      "t_mapping(t_address,t_bool)": {
        "encoding": "mapping",
        "key": "t_address",
        "label": "mapping(address => bool)",
        "numberOfBytes": "32",
        "value": "t_bool"
      },
      "t_mapping(t_address,t_mapping(t_address,t_bool))": {
        "encoding": "mapping",
        "key": "t_address",
        "label": "mapping(address => mapping(address => bool))",
        "numberOfBytes": "32",
        "value": "t_mapping(t_address,t_bool)"
      },
      "t_mapping(t_address,t_uint256)": {
        "encoding": "mapping",
        "key": "t_address",
        "label": "mapping(address => uint256)",
        "numberOfBytes": "32",
        "value": "t_uint256"
      },
      "t_mapping(t_uint256,t_address)": {
        "encoding": "mapping",
        "key": "t_uint256",
        "label": "mapping(uint256 => address)",
        "numberOfBytes": "32",
        "value": "t_address"
      },
      "t_mapping(t_uint256,t_string_storage)": {
        "encoding": "mapping",
        "key": "t_uint256",
        "label": "mapping(uint256 => string)",
        "numberOfBytes": "32",
        "value": "t_string_storage"
      },
      "t_string_storage": {
        "encoding": "bytes",
        "label": "string",
        "numberOfBytes": "32"
      },
      "t_uint256": {
        "encoding": "inplace",
        "label": "uint256",
        "numberOfBytes": "32"
      }
    }
  }
}