{
  "address": "0x1401323eA70E94B64c0Ba286AF42668F62e11Cac",
  "abi": [
    {
      "inputs": [
        {
          "internalType": "address",
          "name": "vrfCoordinatorV2",
          "type": "address"
        },
        {
          "internalType": "uint64",
          "name": "subscriptionId",
          "type": "uint64"
        },
        {
          "internalType": "bytes32",
          "name": "keyHash",
          "type": "bytes32"
        },
        {
          "internalType": "uint256",
          "name": "mintFee",
          "type": "uint256"
        },
        {
          "internalType": "uint32",
          "name": "callbackGasLimit",
          "type": "uint32"
        },
        {
          "internalType": "string[3]",
          "name": "dogTokenUris",
          "type": "string[3]"
        }
      ],
      "stateMutability": "nonpayable",
      "type": "constructor"
    },
    {
      "inputs": [],
      "name": "AlreadyInitialized",
      "type": "error"
    },
    {
      "inputs": [],
      "name": "NeedMoreETHSent",
      "type": "error"
    },
    {
      "inputs": [
        {
          "internalType": "address",
          "name": "have",
          "type": "address"
        },
        {
          "internalType": "address",
          "name": "want",
          "type": "address"
        }
      ],
      "name": "OnlyCoordinatorCanFulfill",
      "type": "error"
    },
    {
      "inputs": [],
      "name": "RangeOutOfBounds",
      "type": "error"
    },
    {
      "anonymous": false,
      "inputs": [
        {
          "indexed": true,
          "internalType": "address",
          "name": "owner",
          "type": "address"
        },
        {
          "indexed": true,
          "internalType": "address",
          "name": "approved",
          "type": "address"
        },
        {
          "indexed": true,
          "internalType": "uint256",
          "name": "tokenId",
          "type": "uint256"
        }
      ],
      "name": "Approval",
      "type": "event"
    },
    {
      "anonymous": false,
      "inputs": [
        {
          "indexed": true,
          "internalType": "address",
          "name": "owner",
          "type": "address"
        },
        {
          "indexed": true,
          "internalType": "address",
          "name": "operator",
          "type": "address"
        },
        {
          "indexed": false,
          "internalType": "bool",
          "name": "approved",
          "type": "bool"
        }
      ],
      "name": "ApprovalForAll",
      "type": "event"
    },
    {
      "anonymous": false,
      "inputs": [
        {
          "indexed": false,
          "internalType": "enum RandomIpfsNft.Breed",
          "name": "breed",
          "type": "uint8"
        },
        {
          "indexed": false,
          "internalType": "address",
          "name": "minter",
          "type": "address"
        }
      ],
      "name": "NftMinted",
      "type": "event"
    },
    {
      "anonymous": false,
      "inputs": [
        {
          "indexed": true,
          "internalType": "uint256",
          "name": "requestId",
          "type": "uint256"
        },
        {
          "indexed": false,
          "internalType": "address",
          "name": "requester",
          "type": "address"
        }
      ],
      "name": "NftRequested",
      "type": "event"
    },
    {
      "anonymous": false,
      "inputs": [
        {
          "indexed": true,
          "internalType": "address",
          "name": "previousOwner",
          "type": "address"
        },
        {
          "indexed": true,
          "internalType": "address",
          "name": "newOwner",
          "type": "address"
        }
      ],
      "name": "OwnershipTransferred",
      "type": "event"
    },
    {
      "anonymous": false,
      "inputs": [
        {
          "indexed": true,
          "internalType": "address",
          "name": "from",
          "type": "address"
        },
        {
          "indexed": true,
          "internalType": "address",
          "name": "to",
          "type": "address"
        },
        {
          "indexed": true,
          "internalType": "uint256",
          "name": "tokenId",
          "type": "uint256"
        }
      ],
      "name": "Transfer",
      "type": "event"
    },
    {
      "inputs": [
        {
          "internalType": "address",
          "name": "to",
          "type": "address"
        },
        {
          "internalType": "uint256",
          "name": "tokenId",
          "type": "uint256"
        }
      ],
      "name": "approve",
      "outputs": [],
      "stateMutability": "nonpayable",
      "type": "function"
    },
    {
      "inputs": [
        {
          "internalType": "address",
          "name": "owner",
          "type": "address"
        }
      ],
      "name": "balanceOf",
      "outputs": [
        {
          "internalType": "uint256",
          "name": "",
          "type": "uint256"
        }
      ],
      "stateMutability": "view",
      "type": "function"
    },
    {
      "inputs": [
        {
          "internalType": "uint256",
          "name": "tokenId",
          "type": "uint256"
        }
      ],
      "name": "getApproved",
      "outputs": [
        {
          "internalType": "address",
          "name": "",
          "type": "address"
        }
      ],
      "stateMutability": "view",
      "type": "function"
    },
    {
      "inputs": [
        {
          "internalType": "uint256",
          "name": "moddedRng",
          "type": "uint256"
        }
      ],
      "name": "getBreedFromModdedRng",
      "outputs": [
        {
          "internalType": "enum RandomIpfsNft.Breed",
          "name": "",
          "type": "uint8"
        }
      ],
      "stateMutability": "pure",
      "type": "function"
    },
    {
      "inputs": [],
      "name": "getChanceArray",
      "outputs": [
        {
          "internalType": "uint256[3]",
          "name": "",
          "type": "uint256[3]"
        }
      ],
      "stateMutability": "pure",
      "type": "function"
    },
    {
      "inputs": [
        {
          "internalType": "uint256",
          "name": "index",
          "type": "uint256"
        }
      ],
      "name": "getDogTokenUris",
      "outputs": [
        {
          "internalType": "string",
          "name": "",
          "type": "string"
        }
      ],
      "stateMutability": "view",
      "type": "function"
    },
    {
      "inputs": [],
      "name": "getInitialized",
      "outputs": [
        {
          "internalType": "bool",
          "name": "",
          "type": "bool"
        }
      ],
      "stateMutability": "view",
      "type": "function"
    },
    {
      "inputs": [],
      "name": "getMintFee",
      "outputs": [
        {
          "internalType": "uint256",
          "name": "",
          "type": "uint256"
        }
      ],
      "stateMutability": "view",
      "type": "function"
    },
    {
      "inputs": [],
      "name": "getTokenCounter",
      "outputs": [
        {
          "internalType": "uint256",
          "name": "",
          "type": "uint256"
        }
      ],
      "stateMutability": "view",
      "type": "function"
    },
    {
      "inputs": [
        {
          "internalType": "address",
          "name": "owner",
          "type": "address"
        },
        {
          "internalType": "address",
          "name": "operator",
          "type": "address"
        }
      ],
      "name": "isApprovedForAll",
      "outputs": [
        {
          "internalType": "bool",
          "name": "",
          "type": "bool"
        }
      ],
      "stateMutability": "view",
      "type": "function"
    },
    {
      "inputs": [],
      "name": "name",
      "outputs": [
        {
          "internalType": "string",
          "name": "",
          "type": "string"
        }
      ],
      "stateMutability": "view",
      "type": "function"
    },
    {
      "inputs": [],
      "name": "owner",
      "outputs": [
        {
          "internalType": "address",
          "name": "",
          "type": "address"
        }
      ],
      "stateMutability": "view",
      "type": "function"
    },
    {
      "inputs": [
        {
          "internalType": "uint256",
          "name": "tokenId",
          "type": "uint256"
        }
      ],
      "name": "ownerOf",
      "outputs": [
        {
          "internalType": "address",
          "name": "",
          "type": "address"
        }
      ],
      "stateMutability": "view",
      "type": "function"
    },
    {
      "inputs": [
        {
          "internalType": "uint256",
          "name": "requestId",
          "type": "uint256"
        },
        {
          "internalType": "uint256[]",
          "name": "randomWords",
          "type": "uint256[]"
        }
      ],
      "name": "rawFulfillRandomWords",
      "outputs": [],
      "stateMutability": "nonpayable",
      "type": "function"
    },
    {
      "inputs": [],
      "name": "renounceOwnership",
      "outputs": [],
      "stateMutability": "nonpayable",
      "type": "function"
    },
    {
      "inputs": [],
      "name": "requestNft",
      "outputs": [
        {
          "internalType": "uint256",
          "name": "requestId",
          "type": "uint256"
        }
      ],
      "stateMutability": "payable",
      "type": "function"
    },
    {
      "inputs": [
        {
          "internalType": "uint256",
          "name": "",
          "type": "uint256"
        }
      ],
      "name": "s_requestIdToSender",
      "outputs": [
        {
          "internalType": "address",
          "name": "",
          "type": "address"
        }
      ],
      "stateMutability": "view",
      "type": "function"
    },
    {
      "inputs": [
        {
          "internalType": "address",
          "name": "from",
          "type": "address"
        },
        {
          "internalType": "address",
          "name": "to",
          "type": "address"
        },
        {
          "internalType": "uint256",
          "name": "tokenId",
          "type": "uint256"
        }
      ],
      "name": "safeTransferFrom",
      "outputs": [],
      "stateMutability": "nonpayable",
      "type": "function"
    },
    {
      "inputs": [
        {
          "internalType": "address",
          "name": "from",
          "type": "address"
        },
        {
          "internalType": "address",
          "name": "to",
          "type": "address"
        },
        {
          "internalType": "uint256",
          "name": "tokenId",
          "type": "uint256"
        },
        {
          "internalType": "bytes",
          "name": "data",
          "type": "bytes"
        }
      ],
      "name": "safeTransferFrom",
      "outputs": [],
      "stateMutability": "nonpayable",
      "type": "function"
    },
    {
      "inputs": [
        {
          "internalType": "address",
          "name": "operator",
          "type": "address"
        },
        {
          "internalType": "bool",
          "name": "approved",
          "type": "bool"
        }
      ],
      "name": "setApprovalForAll",
      "outputs": [],
      "stateMutability": "nonpayable",
      "type": "function"
    },
    {
      "inputs": [
        {
          "internalType": "bytes4",
          "name": "interfaceId",
          "type": "bytes4"
        }
      ],
      "name": "supportsInterface",
      "outputs": [
        {
          "internalType": "bool",
          "name": "",
          "type": "bool"
        }
      ],
      "stateMutability": "view",
      "type": "function"
    },
    {
      "inputs": [],
      "name": "symbol",
      "outputs": [
        {
          "internalType": "string",
          "name": "",
          "type": "string"
        }
      ],
      "stateMutability": "view",
      "type": "function"
    },
    {
      "inputs": [
        {
          "internalType": "uint256",
          "name": "tokenId",
          "type": "uint256"
        }
      ],
      "name": "tokenURI",
      "outputs": [
        {
          "internalType": "string",
          "name": "",
          "type": "string"
        }
      ],
      "stateMutability": "view",
      "type": "function"
    },
    {
      "inputs": [
        {
          "internalType": "address",
          "name": "from",
          "type": "address"
        },
        {
          "internalType": "address",
          "name": "to",
          "type": "address"
        },
        {
          "internalType": "uint256",
          "name": "tokenId",
          "type": "uint256"
        }
      ],
      "name": "transferFrom",
      "outputs": [],
      "stateMutability": "nonpayable",
      "type": "function"
    },
    {
      "inputs": [
        {
          "internalType": "address",
          "name": "newOwner",
          "type": "address"
        }
      ],
      "name": "transferOwnership",
      "outputs": [],
      "stateMutability": "nonpayable",
      "type": "function"
    },
    {
      "inputs": [],
      "name": "withdraw",
      "outputs": [],
      "stateMutability": "nonpayable",
      "type": "function"
    }
  ],
  "transactionHash": "0xcf95cdbf463caf64d472888f776544f283a381e761f7cb42cb53505568355fc3",
  "args": [
    "0x2Ca8E0C643bDe4C2E08ab1fA0da3401AdAD7734D",
    "273",
    "0x79d3d8832d904592c0bf9818b621522c988bb8b0c05cdc3b15aea1b6e8db0c15",
    "10000000000000000",
    "200000",
    [
      "ipfs://QmaVkBn2tKmjbhphU7eyztbvSQU5EXDdqRyXZtRhSGgJGo",
      "ipfs://QmYQC5aGZu2PTH8XzbJrbDnvhj3gVs7ya33H9mqUNvST3d",
      "ipfs://QmZYmH5iDbD6v3U2ixoVAjioSzvWJszDzYdbeCLquGSpVm"
    ]
  ],
  "numDeployments": 7,
  "solcInputHash": "ae60712406e51237a65486a5a8df5005",
  "bytecode": "0x6101406040523480156200001257600080fd5b50604051620043c7380380620043c7833981810160405281019062000038919062000876565b856040518060400160405280600f81526020017f52616e646f6d2049504653204e465400000000000000000000000000000000008152506040518060400160405280600381526020017f52494e00000000000000000000000000000000000000000000000000000000008152508160009080519060200190620000bd92919062000309565b508060019080519060200190620000d692919062000309565b5050508073ffffffffffffffffffffffffffffffffffffffff1660808173ffffffffffffffffffffffffffffffffffffffff1681525050506200012e62000122620001c160201b60201c565b620001c960201b60201c565b8573ffffffffffffffffffffffffffffffffffffffff1660a08173ffffffffffffffffffffffffffffffffffffffff16815250508360e081815250508467ffffffffffffffff1660c08167ffffffffffffffff16815250508261012081815250508163ffffffff166101008163ffffffff1681525050620001b5816200028f60201b60201c565b50505050505062000996565b600033905090565b6000600760009054906101000a900473ffffffffffffffffffffffffffffffffffffffff16905081600760006101000a81548173ffffffffffffffffffffffffffffffffffffffff021916908373ffffffffffffffffffffffffffffffffffffffff1602179055508173ffffffffffffffffffffffffffffffffffffffff168173ffffffffffffffffffffffffffffffffffffffff167f8be0079c531659141344cd1fd0a4f28419497f9722a3daafe3b4186f6b6457e060405160405180910390a35050565b600b60009054906101000a900460ff1615620002d7576040517f0dc149f000000000000000000000000000000000000000000000000000000000815260040160405180910390fd5b80600a906003620002ea9291906200039a565b506001600b60006101000a81548160ff02191690831515021790555050565b828054620003179062000960565b90600052602060002090601f0160209004810192826200033b576000855562000387565b82601f106200035657805160ff191683800117855562000387565b8280016001018555821562000387579182015b828111156200038657825182559160200191906001019062000369565b5b50905062000396919062000401565b5090565b828054828255906000526020600020908101928215620003ee579160200282015b82811115620003ed578251829080519060200190620003dc92919062000309565b5091602001919060010190620003bb565b5b509050620003fd919062000420565b5090565b5b808211156200041c57600081600090555060010162000402565b5090565b5b808211156200044457600081816200043a919062000448565b5060010162000421565b5090565b508054620004569062000960565b6000825580601f106200046a57506200048b565b601f0160209004906000526020600020908101906200048a919062000401565b5b50565b6000604051905090565b600080fd5b600080fd5b600073ffffffffffffffffffffffffffffffffffffffff82169050919050565b6000620004cf82620004a2565b9050919050565b620004e181620004c2565b8114620004ed57600080fd5b50565b6000815190506200050181620004d6565b92915050565b600067ffffffffffffffff82169050919050565b620005268162000507565b81146200053257600080fd5b50565b60008151905062000546816200051b565b92915050565b6000819050919050565b62000561816200054c565b81146200056d57600080fd5b50565b600081519050620005818162000556565b92915050565b6000819050919050565b6200059c8162000587565b8114620005a857600080fd5b50565b600081519050620005bc8162000591565b92915050565b600063ffffffff82169050919050565b620005dd81620005c2565b8114620005e957600080fd5b50565b600081519050620005fd81620005d2565b92915050565b600080fd5b6000601f19601f8301169050919050565b7f4e487b7100000000000000000000000000000000000000000000000000000000600052604160045260246000fd5b620006538262000608565b810181811067ffffffffffffffff8211171562000675576200067462000619565b5b80604052505050565b60006200068a6200048e565b905062000698828262000648565b919050565b600067ffffffffffffffff821115620006bb57620006ba62000619565b5b602082029050919050565b600080fd5b600080fd5b600067ffffffffffffffff821115620006ee57620006ed62000619565b5b620006f98262000608565b9050602081019050919050565b60005b838110156200072657808201518184015260208101905062000709565b8381111562000736576000848401525b50505050565b6000620007536200074d84620006d0565b6200067e565b905082815260208101848484011115620007725762000771620006cb565b5b6200077f84828562000706565b509392505050565b600082601f8301126200079f576200079e62000603565b5b8151620007b18482602086016200073c565b91505092915050565b6000620007d1620007cb846200069d565b6200067e565b90508060208402830185811115620007ee57620007ed620006c6565b5b835b818110156200083c57805167ffffffffffffffff81111562000817576200081662000603565b5b80860162000826898262000787565b85526020850194505050602081019050620007f0565b5050509392505050565b600082601f8301126200085e576200085d62000603565b5b60036200086d848285620007ba565b91505092915050565b60008060008060008060c0878903121562000896576200089562000498565b5b6000620008a689828a01620004f0565b9650506020620008b989828a0162000535565b9550506040620008cc89828a0162000570565b9450506060620008df89828a01620005ab565b9350506080620008f289828a01620005ec565b92505060a087015167ffffffffffffffff8111156200091657620009156200049d565b5b6200092489828a0162000846565b9150509295509295509295565b7f4e487b7100000000000000000000000000000000000000000000000000000000600052602260045260246000fd5b600060028204905060018216806200097957607f821691505b6020821081141562000990576200098f62000931565b5b50919050565b60805160a05160c05160e05161010051610120516139d3620009f460003960008181610d790152610f720152600061104c015260006110080152600061102901526000610fcc015260008181610917015261096b01526139d36000f3fe6080604052600436106101815760003560e01c8063715018a6116100d1578063a51cccf31161008a578063c87b56dd11610064578063c87b56dd14610575578063e985e9c5146105b2578063ee89dab4146105ef578063f2fde38b1461061a57610181565b8063a51cccf3146104f1578063aa1524911461052e578063b88d4fde1461054c57610181565b8063715018a6146103f35780637a5caab31461040a5780638da5cb5b1461043557806395d89b4114610460578063a22cb4651461048b578063a36f573b146104b457610181565b80633af259751161013e5780635dacf5f4116101185780635dacf5f4146103235780636352211e1461034e5780636e02007d1461038b57806370a08231146103b657610181565b80633af25975146102a65780633ccfd60b146102e357806342842e0e146102fa57610181565b806301ffc9a71461018657806306fdde03146101c3578063081812fc146101ee578063095ea7b31461022b5780631fe543e31461025457806323b872dd1461027d575b600080fd5b34801561019257600080fd5b506101ad60048036038101906101a89190612515565b610643565b6040516101ba919061255d565b60405180910390f35b3480156101cf57600080fd5b506101d8610725565b6040516101e59190612611565b60405180910390f35b3480156101fa57600080fd5b5061021560048036038101906102109190612669565b6107b7565b60405161022291906126d7565b60405180910390f35b34801561023757600080fd5b50610252600480360381019061024d919061271e565b6107fd565b005b34801561026057600080fd5b5061027b600480360381019061027691906128a6565b610915565b005b34801561028957600080fd5b506102a4600480360381019061029f9190612902565b6109d5565b005b3480156102b257600080fd5b506102cd60048036038101906102c89190612669565b610a35565b6040516102da9190612611565b60405180910390f35b3480156102ef57600080fd5b506102f8610ae5565b005b34801561030657600080fd5b50610321600480360381019061031c9190612902565b610ba2565b005b34801561032f57600080fd5b50610338610bc2565b6040516103459190612a00565b60405180910390f35b34801561035a57600080fd5b5061037560048036038101906103709190612669565b610bed565b60405161038291906126d7565b60405180910390f35b34801561039757600080fd5b506103a0610c9f565b6040516103ad9190612a2a565b60405180910390f35b3480156103c257600080fd5b506103dd60048036038101906103d89190612a45565b610ca9565b6040516103ea9190612a2a565b60405180910390f35b3480156103ff57600080fd5b50610408610d61565b005b34801561041657600080fd5b5061041f610d75565b60405161042c9190612a2a565b60405180910390f35b34801561044157600080fd5b5061044a610d9d565b60405161045791906126d7565b60405180910390f35b34801561046c57600080fd5b50610475610dc7565b6040516104829190612611565b60405180910390f35b34801561049757600080fd5b506104b260048036038101906104ad9190612a9e565b610e59565b005b3480156104c057600080fd5b506104db60048036038101906104d69190612669565b610e6f565b6040516104e891906126d7565b60405180910390f35b3480156104fd57600080fd5b5061051860048036038101906105139190612669565b610ea2565b6040516105259190612b55565b60405180910390f35b610536610f6e565b6040516105439190612a2a565b60405180910390f35b34801561055857600080fd5b50610573600480360381019061056e9190612c25565b61115f565b005b34801561058157600080fd5b5061059c60048036038101906105979190612669565b6111c1565b6040516105a99190612611565b60405180910390f35b3480156105be57600080fd5b506105d960048036038101906105d49190612ca8565b6112d4565b6040516105e6919061255d565b60405180910390f35b3480156105fb57600080fd5b50610604611368565b604051610611919061255d565b60405180910390f35b34801561062657600080fd5b50610641600480360381019061063c9190612a45565b61137f565b005b60007f80ac58cd000000000000000000000000000000000000000000000000000000007bffffffffffffffffffffffffffffffffffffffffffffffffffffffff1916827bffffffffffffffffffffffffffffffffffffffffffffffffffffffff1916148061070e57507f5b5e139f000000000000000000000000000000000000000000000000000000007bffffffffffffffffffffffffffffffffffffffffffffffffffffffff1916827bffffffffffffffffffffffffffffffffffffffffffffffffffffffff1916145b8061071e575061071d82611403565b5b9050919050565b60606000805461073490612d17565b80601f016020809104026020016040519081016040528092919081815260200182805461076090612d17565b80156107ad5780601f10610782576101008083540402835291602001916107ad565b820191906000526020600020905b81548152906001019060200180831161079057829003601f168201915b5050505050905090565b60006107c28261146d565b6004600083815260200190815260200160002060009054906101000a900473ffffffffffffffffffffffffffffffffffffffff169050919050565b600061080882610bed565b90508073ffffffffffffffffffffffffffffffffffffffff168373ffffffffffffffffffffffffffffffffffffffff161415610879576040517f08c379a000000000000000000000000000000000000000000000000000000000815260040161087090612dbb565b60405180910390fd5b8073ffffffffffffffffffffffffffffffffffffffff166108986114b8565b73ffffffffffffffffffffffffffffffffffffffff1614806108c757506108c6816108c16114b8565b6112d4565b5b610906576040517f08c379a00000000000000000000000000000000000000000000000000000000081526004016108fd90612e4d565b60405180910390fd5b61091083836114c0565b505050565b7f000000000000000000000000000000000000000000000000000000000000000073ffffffffffffffffffffffffffffffffffffffff163373ffffffffffffffffffffffffffffffffffffffff16146109c757337f00000000000000000000000000000000000000000000000000000000000000006040517f1cf993f40000000000000000000000000000000000000000000000000000000081526004016109be929190612e6d565b60405180910390fd5b6109d18282611579565b5050565b6109e66109e06114b8565b82611713565b610a25576040517f08c379a0000000000000000000000000000000000000000000000000000000008152600401610a1c90612f08565b60405180910390fd5b610a308383836117a8565b505050565b6060600a8281548110610a4b57610a4a612f28565b5b906000526020600020018054610a6090612d17565b80601f0160208091040260200160405190810160405280929190818152602001828054610a8c90612d17565b8015610ad95780601f10610aae57610100808354040283529160200191610ad9565b820191906000526020600020905b815481529060010190602001808311610abc57829003601f168201915b50505050509050919050565b610aed611a0f565b600047905060003373ffffffffffffffffffffffffffffffffffffffff1682604051610b1890612f88565b60006040518083038185875af1925050503d8060008114610b55576040519150601f19603f3d011682016040523d82523d6000602084013e610b5a565b606091505b5050905080610b9e576040517f08c379a0000000000000000000000000000000000000000000000000000000008152600401610b9590612fe9565b60405180910390fd5b5050565b610bbd8383836040518060200160405280600081525061115f565b505050565b610bca6123e4565b6040518060600160405280600a8152602001601e81526020016064815250905090565b6000806002600084815260200190815260200160002060009054906101000a900473ffffffffffffffffffffffffffffffffffffffff169050600073ffffffffffffffffffffffffffffffffffffffff168173ffffffffffffffffffffffffffffffffffffffff161415610c96576040517f08c379a0000000000000000000000000000000000000000000000000000000008152600401610c8d90613055565b60405180910390fd5b80915050919050565b6000600854905090565b60008073ffffffffffffffffffffffffffffffffffffffff168273ffffffffffffffffffffffffffffffffffffffff161415610d1a576040517f08c379a0000000000000000000000000000000000000000000000000000000008152600401610d11906130e7565b60405180910390fd5b600360008373ffffffffffffffffffffffffffffffffffffffff1673ffffffffffffffffffffffffffffffffffffffff168152602001908152602001600020549050919050565b610d69611a0f565b610d736000611a8d565b565b60007f0000000000000000000000000000000000000000000000000000000000000000905090565b6000600760009054906101000a900473ffffffffffffffffffffffffffffffffffffffff16905090565b606060018054610dd690612d17565b80601f0160208091040260200160405190810160405280929190818152602001828054610e0290612d17565b8015610e4f5780601f10610e2457610100808354040283529160200191610e4f565b820191906000526020600020905b815481529060010190602001808311610e3257829003601f168201915b5050505050905090565b610e6b610e646114b8565b8383611b53565b5050565b600c6020528060005260406000206000915054906101000a900473ffffffffffffffffffffffffffffffffffffffff1681565b600080600090506000610eb3610bc2565b905060005b6003811015610f3657828510158015610ee75750818160038110610edf57610ede612f28565b5b602002015185105b15610f0957806002811115610eff57610efe612ade565b5b9350505050610f69565b818160038110610f1c57610f1b612f28565b5b602002015192508080610f2e90613136565b915050610eb8565b506040517f0655dc2500000000000000000000000000000000000000000000000000000000815260040160405180910390fd5b919050565b60007f0000000000000000000000000000000000000000000000000000000000000000341015610fca576040517f2e53d2d300000000000000000000000000000000000000000000000000000000815260040160405180910390fd5b7f000000000000000000000000000000000000000000000000000000000000000073ffffffffffffffffffffffffffffffffffffffff16635d3b1d307f00000000000000000000000000000000000000000000000000000000000000007f000000000000000000000000000000000000000000000000000000000000000060037f000000000000000000000000000000000000000000000000000000000000000060016040518663ffffffff1660e01b815260040161108d9594939291906131f7565b6020604051808303816000875af11580156110ac573d6000803e3d6000fd5b505050506040513d601f19601f820116820180604052508101906110d0919061325f565b905033600c600083815260200190815260200160002060006101000a81548173ffffffffffffffffffffffffffffffffffffffff021916908373ffffffffffffffffffffffffffffffffffffffff160217905550807ff873236e6cc0ecc5be1a9a35c95ee5b8d1ac4cc7bfef0cc5060391d6cc98e26b3360405161115491906126d7565b60405180910390a290565b61117061116a6114b8565b83611713565b6111af576040517f08c379a00000000000000000000000000000000000000000000000000000000081526004016111a690612f08565b60405180910390fd5b6111bb84848484611cc0565b50505050565b60606111cc8261146d565b60006006600084815260200190815260200160002080546111ec90612d17565b80601f016020809104026020016040519081016040528092919081815260200182805461121890612d17565b80156112655780601f1061123a57610100808354040283529160200191611265565b820191906000526020600020905b81548152906001019060200180831161124857829003601f168201915b505050505090506000611276611d1c565b905060008151141561128c5781925050506112cf565b6000825111156112c15780826040516020016112a99291906132c8565b604051602081830303815290604052925050506112cf565b6112ca84611d33565b925050505b919050565b6000600560008473ffffffffffffffffffffffffffffffffffffffff1673ffffffffffffffffffffffffffffffffffffffff16815260200190815260200160002060008373ffffffffffffffffffffffffffffffffffffffff1673ffffffffffffffffffffffffffffffffffffffff16815260200190815260200160002060009054906101000a900460ff16905092915050565b6000600b60009054906101000a900460ff16905090565b611387611a0f565b600073ffffffffffffffffffffffffffffffffffffffff168173ffffffffffffffffffffffffffffffffffffffff1614156113f7576040517f08c379a00000000000000000000000000000000000000000000000000000000081526004016113ee9061335e565b60405180910390fd5b61140081611a8d565b50565b60007f01ffc9a7000000000000000000000000000000000000000000000000000000007bffffffffffffffffffffffffffffffffffffffffffffffffffffffff1916827bffffffffffffffffffffffffffffffffffffffffffffffffffffffff1916149050919050565b61147681611d9b565b6114b5576040517f08c379a00000000000000000000000000000000000000000000000000000000081526004016114ac90613055565b60405180910390fd5b50565b600033905090565b816004600083815260200190815260200160002060006101000a81548173ffffffffffffffffffffffffffffffffffffffff021916908373ffffffffffffffffffffffffffffffffffffffff160217905550808273ffffffffffffffffffffffffffffffffffffffff1661153383610bed565b73ffffffffffffffffffffffffffffffffffffffff167f8c5be1e5ebec7d5bd14f71427d1e84f3dd0314c0f7b2291e5b200ac8c7c3b92560405160405180910390a45050565b6000600c600084815260200190815260200160002060009054906101000a900473ffffffffffffffffffffffffffffffffffffffff1690506000600854905060016008546115c7919061337e565b60088190555060006064846000815181106115e5576115e4612f28565b5b60200260200101516115f79190613403565b9050600061160482610ea2565b90506116108484611e07565b6116d283600a83600281111561162957611628612ade565b5b8154811061163a57611639612f28565b5b90600052602060002001805461164f90612d17565b80601f016020809104026020016040519081016040528092919081815260200182805461167b90612d17565b80156116c85780601f1061169d576101008083540402835291602001916116c8565b820191906000526020600020905b8154815290600101906020018083116116ab57829003601f168201915b5050505050611e25565b7f8a269f26b688e110e9cbd887d163dab35cae678fa353a0292de532c0cac1ecdc8185604051611703929190613434565b60405180910390a1505050505050565b60008061171f83610bed565b90508073ffffffffffffffffffffffffffffffffffffffff168473ffffffffffffffffffffffffffffffffffffffff161480611761575061176081856112d4565b5b8061179f57508373ffffffffffffffffffffffffffffffffffffffff16611787846107b7565b73ffffffffffffffffffffffffffffffffffffffff16145b91505092915050565b8273ffffffffffffffffffffffffffffffffffffffff166117c882610bed565b73ffffffffffffffffffffffffffffffffffffffff161461181e576040517f08c379a0000000000000000000000000000000000000000000000000000000008152600401611815906134cf565b60405180910390fd5b600073ffffffffffffffffffffffffffffffffffffffff168273ffffffffffffffffffffffffffffffffffffffff16141561188e576040517f08c379a000000000000000000000000000000000000000000000000000000000815260040161188590613561565b60405180910390fd5b611899838383611e99565b6118a46000826114c0565b6001600360008573ffffffffffffffffffffffffffffffffffffffff1673ffffffffffffffffffffffffffffffffffffffff16815260200190815260200160002060008282546118f49190613581565b925050819055506001600360008473ffffffffffffffffffffffffffffffffffffffff1673ffffffffffffffffffffffffffffffffffffffff168152602001908152602001600020600082825461194b919061337e565b92505081905550816002600083815260200190815260200160002060006101000a81548173ffffffffffffffffffffffffffffffffffffffff021916908373ffffffffffffffffffffffffffffffffffffffff160217905550808273ffffffffffffffffffffffffffffffffffffffff168473ffffffffffffffffffffffffffffffffffffffff167fddf252ad1be2c89b69c2b068fc378daa952ba7f163c4a11628f55a4df523b3ef60405160405180910390a4611a0a838383611e9e565b505050565b611a176114b8565b73ffffffffffffffffffffffffffffffffffffffff16611a35610d9d565b73ffffffffffffffffffffffffffffffffffffffff1614611a8b576040517f08c379a0000000000000000000000000000000000000000000000000000000008152600401611a8290613601565b60405180910390fd5b565b6000600760009054906101000a900473ffffffffffffffffffffffffffffffffffffffff16905081600760006101000a81548173ffffffffffffffffffffffffffffffffffffffff021916908373ffffffffffffffffffffffffffffffffffffffff1602179055508173ffffffffffffffffffffffffffffffffffffffff168173ffffffffffffffffffffffffffffffffffffffff167f8be0079c531659141344cd1fd0a4f28419497f9722a3daafe3b4186f6b6457e060405160405180910390a35050565b8173ffffffffffffffffffffffffffffffffffffffff168373ffffffffffffffffffffffffffffffffffffffff161415611bc2576040517f08c379a0000000000000000000000000000000000000000000000000000000008152600401611bb99061366d565b60405180910390fd5b80600560008573ffffffffffffffffffffffffffffffffffffffff1673ffffffffffffffffffffffffffffffffffffffff16815260200190815260200160002060008473ffffffffffffffffffffffffffffffffffffffff1673ffffffffffffffffffffffffffffffffffffffff16815260200190815260200160002060006101000a81548160ff0219169083151502179055508173ffffffffffffffffffffffffffffffffffffffff168373ffffffffffffffffffffffffffffffffffffffff167f17307eab39ab6107e8899845ad3d59bd9653f200f220920489ca2b5937696c3183604051611cb3919061255d565b60405180910390a3505050565b611ccb8484846117a8565b611cd784848484611ea3565b611d16576040517f08c379a0000000000000000000000000000000000000000000000000000000008152600401611d0d906136ff565b60405180910390fd5b50505050565b606060405180602001604052806000815250905090565b6060611d3e8261146d565b6000611d48611d1c565b90506000815111611d685760405180602001604052806000815250611d93565b80611d728461202b565b604051602001611d839291906132c8565b6040516020818303038152906040525b915050919050565b60008073ffffffffffffffffffffffffffffffffffffffff166002600084815260200190815260200160002060009054906101000a900473ffffffffffffffffffffffffffffffffffffffff1673ffffffffffffffffffffffffffffffffffffffff1614159050919050565b611e2182826040518060200160405280600081525061218c565b5050565b611e2e82611d9b565b611e6d576040517f08c379a0000000000000000000000000000000000000000000000000000000008152600401611e6490613791565b60405180910390fd5b80600660008481526020019081526020016000209080519060200190611e94929190612406565b505050565b505050565b505050565b6000611ec48473ffffffffffffffffffffffffffffffffffffffff166121e7565b1561201e578373ffffffffffffffffffffffffffffffffffffffff1663150b7a02611eed6114b8565b8786866040518563ffffffff1660e01b8152600401611f0f9493929190613806565b6020604051808303816000875af1925050508015611f4b57506040513d601f19601f82011682018060405250810190611f489190613867565b60015b611fce573d8060008114611f7b576040519150601f19603f3d011682016040523d82523d6000602084013e611f80565b606091505b50600081511415611fc6576040517f08c379a0000000000000000000000000000000000000000000000000000000008152600401611fbd906136ff565b60405180910390fd5b805181602001fd5b63150b7a0260e01b7bffffffffffffffffffffffffffffffffffffffffffffffffffffffff1916817bffffffffffffffffffffffffffffffffffffffffffffffffffffffff191614915050612023565b600190505b949350505050565b60606000821415612073576040518060400160405280600181526020017f30000000000000000000000000000000000000000000000000000000000000008152509050612187565b600082905060005b600082146120a557808061208e90613136565b915050600a8261209e9190613894565b915061207b565b60008167ffffffffffffffff8111156120c1576120c0612763565b5b6040519080825280601f01601f1916602001820160405280156120f35781602001600182028036833780820191505090505b5090505b600085146121805760018261210c9190613581565b9150600a8561211b9190613403565b6030612127919061337e565b60f81b81838151811061213d5761213c612f28565b5b60200101907effffffffffffffffffffffffffffffffffffffffffffffffffffffffffffff1916908160001a905350600a856121799190613894565b94506120f7565b8093505050505b919050565b612196838361220a565b6121a36000848484611ea3565b6121e2576040517f08c379a00000000000000000000000000000000000000000000000000000000081526004016121d9906136ff565b60405180910390fd5b505050565b6000808273ffffffffffffffffffffffffffffffffffffffff163b119050919050565b600073ffffffffffffffffffffffffffffffffffffffff168273ffffffffffffffffffffffffffffffffffffffff16141561227a576040517f08c379a000000000000000000000000000000000000000000000000000000000815260040161227190613911565b60405180910390fd5b61228381611d9b565b156122c3576040517f08c379a00000000000000000000000000000000000000000000000000000000081526004016122ba9061397d565b60405180910390fd5b6122cf60008383611e99565b6001600360008473ffffffffffffffffffffffffffffffffffffffff1673ffffffffffffffffffffffffffffffffffffffff168152602001908152602001600020600082825461231f919061337e565b92505081905550816002600083815260200190815260200160002060006101000a81548173ffffffffffffffffffffffffffffffffffffffff021916908373ffffffffffffffffffffffffffffffffffffffff160217905550808273ffffffffffffffffffffffffffffffffffffffff16600073ffffffffffffffffffffffffffffffffffffffff167fddf252ad1be2c89b69c2b068fc378daa952ba7f163c4a11628f55a4df523b3ef60405160405180910390a46123e060008383611e9e565b5050565b6040518060600160405280600390602082028036833780820191505090505090565b82805461241290612d17565b90600052602060002090601f016020900481019282612434576000855561247b565b82601f1061244d57805160ff191683800117855561247b565b8280016001018555821561247b579182015b8281111561247a57825182559160200191906001019061245f565b5b509050612488919061248c565b5090565b5b808211156124a557600081600090555060010161248d565b5090565b6000604051905090565b600080fd5b600080fd5b60007fffffffff0000000000000000000000000000000000000000000000000000000082169050919050565b6124f2816124bd565b81146124fd57600080fd5b50565b60008135905061250f816124e9565b92915050565b60006020828403121561252b5761252a6124b3565b5b600061253984828501612500565b91505092915050565b60008115159050919050565b61255781612542565b82525050565b6000602082019050612572600083018461254e565b92915050565b600081519050919050565b600082825260208201905092915050565b60005b838110156125b2578082015181840152602081019050612597565b838111156125c1576000848401525b50505050565b6000601f19601f8301169050919050565b60006125e382612578565b6125ed8185612583565b93506125fd818560208601612594565b612606816125c7565b840191505092915050565b6000602082019050818103600083015261262b81846125d8565b905092915050565b6000819050919050565b61264681612633565b811461265157600080fd5b50565b6000813590506126638161263d565b92915050565b60006020828403121561267f5761267e6124b3565b5b600061268d84828501612654565b91505092915050565b600073ffffffffffffffffffffffffffffffffffffffff82169050919050565b60006126c182612696565b9050919050565b6126d1816126b6565b82525050565b60006020820190506126ec60008301846126c8565b92915050565b6126fb816126b6565b811461270657600080fd5b50565b600081359050612718816126f2565b92915050565b60008060408385031215612735576127346124b3565b5b600061274385828601612709565b925050602061275485828601612654565b9150509250929050565b600080fd5b7f4e487b7100000000000000000000000000000000000000000000000000000000600052604160045260246000fd5b61279b826125c7565b810181811067ffffffffffffffff821117156127ba576127b9612763565b5b80604052505050565b60006127cd6124a9565b90506127d98282612792565b919050565b600067ffffffffffffffff8211156127f9576127f8612763565b5b602082029050602081019050919050565b600080fd5b600061282261281d846127de565b6127c3565b905080838252602082019050602084028301858111156128455761284461280a565b5b835b8181101561286e578061285a8882612654565b845260208401935050602081019050612847565b5050509392505050565b600082601f83011261288d5761288c61275e565b5b813561289d84826020860161280f565b91505092915050565b600080604083850312156128bd576128bc6124b3565b5b60006128cb85828601612654565b925050602083013567ffffffffffffffff8111156128ec576128eb6124b8565b5b6128f885828601612878565b9150509250929050565b60008060006060848603121561291b5761291a6124b3565b5b600061292986828701612709565b935050602061293a86828701612709565b925050604061294b86828701612654565b9150509250925092565b600060039050919050565b600081905092915050565b6000819050919050565b61297e81612633565b82525050565b60006129908383612975565b60208301905092915050565b6000602082019050919050565b6129b281612955565b6129bc8184612960565b92506129c78261296b565b8060005b838110156129f85781516129df8782612984565b96506129ea8361299c565b9250506001810190506129cb565b505050505050565b6000606082019050612a1560008301846129a9565b92915050565b612a2481612633565b82525050565b6000602082019050612a3f6000830184612a1b565b92915050565b600060208284031215612a5b57612a5a6124b3565b5b6000612a6984828501612709565b91505092915050565b612a7b81612542565b8114612a8657600080fd5b50565b600081359050612a9881612a72565b92915050565b60008060408385031215612ab557612ab46124b3565b5b6000612ac385828601612709565b9250506020612ad485828601612a89565b9150509250929050565b7f4e487b7100000000000000000000000000000000000000000000000000000000600052602160045260246000fd5b60038110612b1e57612b1d612ade565b5b50565b6000819050612b2f82612b0d565b919050565b6000612b3f82612b21565b9050919050565b612b4f81612b34565b82525050565b6000602082019050612b6a6000830184612b46565b92915050565b600080fd5b600067ffffffffffffffff821115612b9057612b8f612763565b5b612b99826125c7565b9050602081019050919050565b82818337600083830152505050565b6000612bc8612bc384612b75565b6127c3565b905082815260208101848484011115612be457612be3612b70565b5b612bef848285612ba6565b509392505050565b600082601f830112612c0c57612c0b61275e565b5b8135612c1c848260208601612bb5565b91505092915050565b60008060008060808587031215612c3f57612c3e6124b3565b5b6000612c4d87828801612709565b9450506020612c5e87828801612709565b9350506040612c6f87828801612654565b925050606085013567ffffffffffffffff811115612c9057612c8f6124b8565b5b612c9c87828801612bf7565b91505092959194509250565b60008060408385031215612cbf57612cbe6124b3565b5b6000612ccd85828601612709565b9250506020612cde85828601612709565b9150509250929050565b7f4e487b7100000000000000000000000000000000000000000000000000000000600052602260045260246000fd5b60006002820490506001821680612d2f57607f821691505b60208210811415612d4357612d42612ce8565b5b50919050565b7f4552433732313a20617070726f76616c20746f2063757272656e74206f776e6560008201527f7200000000000000000000000000000000000000000000000000000000000000602082015250565b6000612da5602183612583565b9150612db082612d49565b604082019050919050565b60006020820190508181036000830152612dd481612d98565b9050919050565b7f4552433732313a20617070726f76652063616c6c6572206973206e6f7420746f60008201527f6b656e206f776e6572206e6f7220617070726f76656420666f7220616c6c0000602082015250565b6000612e37603e83612583565b9150612e4282612ddb565b604082019050919050565b60006020820190508181036000830152612e6681612e2a565b9050919050565b6000604082019050612e8260008301856126c8565b612e8f60208301846126c8565b9392505050565b7f4552433732313a2063616c6c6572206973206e6f7420746f6b656e206f776e6560008201527f72206e6f7220617070726f766564000000000000000000000000000000000000602082015250565b6000612ef2602e83612583565b9150612efd82612e96565b604082019050919050565b60006020820190508181036000830152612f2181612ee5565b9050919050565b7f4e487b7100000000000000000000000000000000000000000000000000000000600052603260045260246000fd5b600081905092915050565b50565b6000612f72600083612f57565b9150612f7d82612f62565b600082019050919050565b6000612f9382612f65565b9150819050919050565b7f5472616e73666572206661696c65640000000000000000000000000000000000600082015250565b6000612fd3600f83612583565b9150612fde82612f9d565b602082019050919050565b6000602082019050818103600083015261300281612fc6565b9050919050565b7f4552433732313a20696e76616c696420746f6b656e2049440000000000000000600082015250565b600061303f601883612583565b915061304a82613009565b602082019050919050565b6000602082019050818103600083015261306e81613032565b9050919050565b7f4552433732313a2061646472657373207a65726f206973206e6f74206120766160008201527f6c6964206f776e65720000000000000000000000000000000000000000000000602082015250565b60006130d1602983612583565b91506130dc82613075565b604082019050919050565b60006020820190508181036000830152613100816130c4565b9050919050565b7f4e487b7100000000000000000000000000000000000000000000000000000000600052601160045260246000fd5b600061314182612633565b91507fffffffffffffffffffffffffffffffffffffffffffffffffffffffffffffffff82141561317457613173613107565b5b600182019050919050565b6000819050919050565b6131928161317f565b82525050565b600067ffffffffffffffff82169050919050565b6131b581613198565b82525050565b600061ffff82169050919050565b6131d2816131bb565b82525050565b600063ffffffff82169050919050565b6131f1816131d8565b82525050565b600060a08201905061320c6000830188613189565b61321960208301876131ac565b61322660408301866131c9565b61323360608301856131e8565b61324060808301846131e8565b9695505050505050565b6000815190506132598161263d565b92915050565b600060208284031215613275576132746124b3565b5b60006132838482850161324a565b91505092915050565b600081905092915050565b60006132a282612578565b6132ac818561328c565b93506132bc818560208601612594565b80840191505092915050565b60006132d48285613297565b91506132e08284613297565b91508190509392505050565b7f4f776e61626c653a206e6577206f776e657220697320746865207a65726f206160008201527f6464726573730000000000000000000000000000000000000000000000000000602082015250565b6000613348602683612583565b9150613353826132ec565b604082019050919050565b600060208201905081810360008301526133778161333b565b9050919050565b600061338982612633565b915061339483612633565b9250827fffffffffffffffffffffffffffffffffffffffffffffffffffffffffffffffff038211156133c9576133c8613107565b5b828201905092915050565b7f4e487b7100000000000000000000000000000000000000000000000000000000600052601260045260246000fd5b600061340e82612633565b915061341983612633565b925082613429576134286133d4565b5b828206905092915050565b60006040820190506134496000830185612b46565b61345660208301846126c8565b9392505050565b7f4552433732313a207472616e736665722066726f6d20696e636f72726563742060008201527f6f776e6572000000000000000000000000000000000000000000000000000000602082015250565b60006134b9602583612583565b91506134c48261345d565b604082019050919050565b600060208201905081810360008301526134e8816134ac565b9050919050565b7f4552433732313a207472616e7366657220746f20746865207a65726f2061646460008201527f7265737300000000000000000000000000000000000000000000000000000000602082015250565b600061354b602483612583565b9150613556826134ef565b604082019050919050565b6000602082019050818103600083015261357a8161353e565b9050919050565b600061358c82612633565b915061359783612633565b9250828210156135aa576135a9613107565b5b828203905092915050565b7f4f776e61626c653a2063616c6c6572206973206e6f7420746865206f776e6572600082015250565b60006135eb602083612583565b91506135f6826135b5565b602082019050919050565b6000602082019050818103600083015261361a816135de565b9050919050565b7f4552433732313a20617070726f766520746f2063616c6c657200000000000000600082015250565b6000613657601983612583565b915061366282613621565b602082019050919050565b600060208201905081810360008301526136868161364a565b9050919050565b7f4552433732313a207472616e7366657220746f206e6f6e20455243373231526560008201527f63656976657220696d706c656d656e7465720000000000000000000000000000602082015250565b60006136e9603283612583565b91506136f48261368d565b604082019050919050565b60006020820190508181036000830152613718816136dc565b9050919050565b7f45524337323155524953746f726167653a2055524920736574206f66206e6f6e60008201527f6578697374656e7420746f6b656e000000000000000000000000000000000000602082015250565b600061377b602e83612583565b91506137868261371f565b604082019050919050565b600060208201905081810360008301526137aa8161376e565b9050919050565b600081519050919050565b600082825260208201905092915050565b60006137d8826137b1565b6137e281856137bc565b93506137f2818560208601612594565b6137fb816125c7565b840191505092915050565b600060808201905061381b60008301876126c8565b61382860208301866126c8565b6138356040830185612a1b565b818103606083015261384781846137cd565b905095945050505050565b600081519050613861816124e9565b92915050565b60006020828403121561387d5761387c6124b3565b5b600061388b84828501613852565b91505092915050565b600061389f82612633565b91506138aa83612633565b9250826138ba576138b96133d4565b5b828204905092915050565b7f4552433732313a206d696e7420746f20746865207a65726f2061646472657373600082015250565b60006138fb602083612583565b9150613906826138c5565b602082019050919050565b6000602082019050818103600083015261392a816138ee565b9050919050565b7f4552433732313a20746f6b656e20616c7265616479206d696e74656400000000600082015250565b6000613967601c83612583565b915061397282613931565b602082019050919050565b600060208201905081810360008301526139968161395a565b905091905056fea26469706673582212202cd4546a941f2e7265c5b42ecb6ca8999dd91188a2da6cb67d42af44c796881d64736f6c634300080a0033",
  "devdoc": {
    "kind": "dev",
    "methods": {
      "approve(address,uint256)": {
        "details": "See {IERC721-approve}."
      },
      "balanceOf(address)": {
        "details": "See {IERC721-balanceOf}."
      },
      "getApproved(uint256)": {
        "details": "See {IERC721-getApproved}."
      },
      "isApprovedForAll(address,address)": {
        "details": "See {IERC721-isApprovedForAll}."
      },
      "name()": {
        "details": "See {IERC721Metadata-name}."
      },
      "owner()": {
        "details": "Returns the address of the current owner."
      },
      "ownerOf(uint256)": {
        "details": "See {IERC721-ownerOf}."
      },
      "renounceOwnership()": {
        "details": "Leaves the contract without owner. It will not be possible to call `onlyOwner` functions anymore. Can only be called by the current owner. NOTE: Renouncing ownership will leave the contract without an owner, thereby removing any functionality that is only available to the owner."
      },
      "safeTransferFrom(address,address,uint256)": {
        "details": "See {IERC721-safeTransferFrom}."
      },
      "safeTransferFrom(address,address,uint256,bytes)": {
        "details": "See {IERC721-safeTransferFrom}."
      },
      "setApprovalForAll(address,bool)": {
        "details": "See {IERC721-setApprovalForAll}."
      },
      "supportsInterface(bytes4)": {
        "details": "See {IERC165-supportsInterface}."
      },
      "symbol()": {
        "details": "See {IERC721Metadata-symbol}."
      },
      "tokenURI(uint256)": {
        "details": "See {IERC721Metadata-tokenURI}."
      },
      "transferFrom(address,address,uint256)": {
        "details": "See {IERC721-transferFrom}."
      },
      "transferOwnership(address)": {
        "details": "Transfers ownership of the contract to a new account (`newOwner`). Can only be called by the current owner."
      }
    },
    "version": 1
  },
  "userdoc": {
    "kind": "user",
    "methods": {},
    "version": 1
  },
  "storageLayout": {
    "storage": [
      {
        "astId": 1559,
        "contract": "contracts/RandomIpfsNft.sol:RandomIpfsNft",
        "label": "_name",
        "offset": 0,
        "slot": "0",
        "type": "t_string_storage"
      },
      {
        "astId": 1561,
        "contract": "contracts/RandomIpfsNft.sol:RandomIpfsNft",
        "label": "_symbol",
        "offset": 0,
        "slot": "1",
        "type": "t_string_storage"
      },
      {
        "astId": 1565,
        "contract": "contracts/RandomIpfsNft.sol:RandomIpfsNft",
        "label": "_owners",
        "offset": 0,
        "slot": "2",
        "type": "t_mapping(t_uint256,t_address)"
      },
      {
        "astId": 1569,
        "contract": "contracts/RandomIpfsNft.sol:RandomIpfsNft",
        "label": "_balances",
        "offset": 0,
        "slot": "3",
        "type": "t_mapping(t_address,t_uint256)"
      },
      {
        "astId": 1573,
        "contract": "contracts/RandomIpfsNft.sol:RandomIpfsNft",
        "label": "_tokenApprovals",
        "offset": 0,
        "slot": "4",
        "type": "t_mapping(t_uint256,t_address)"
      },
      {
        "astId": 1579,
        "contract": "contracts/RandomIpfsNft.sol:RandomIpfsNft",
        "label": "_operatorApprovals",
        "offset": 0,
        "slot": "5",
        "type": "t_mapping(t_address,t_mapping(t_address,t_bool))"
      },
      {
        "astId": 2547,
        "contract": "contracts/RandomIpfsNft.sol:RandomIpfsNft",
        "label": "_tokenURIs",
        "offset": 0,
        "slot": "6",
        "type": "t_mapping(t_uint256,t_string_storage)"
      },
      {
        "astId": 1428,
        "contract": "contracts/RandomIpfsNft.sol:RandomIpfsNft",
        "label": "_owner",
        "offset": 0,
        "slot": "7",
        "type": "t_address"
      },
      {
        "astId": 3722,
        "contract": "contracts/RandomIpfsNft.sol:RandomIpfsNft",
        "label": "s_tokenCounter",
        "offset": 0,
        "slot": "8",
        "type": "t_uint256"
      },
      {
        "astId": 3727,
        "contract": "contracts/RandomIpfsNft.sol:RandomIpfsNft",
        "label": "s_tokenIdToBreed",
        "offset": 0,
        "slot": "9",
        "type": "t_mapping(t_uint256,t_enum(Breed)3703)"
      },
      {
        "astId": 3733,
        "contract": "contracts/RandomIpfsNft.sol:RandomIpfsNft",
        "label": "s_dogTokenUris",
        "offset": 0,
        "slot": "10",
        "type": "t_array(t_string_storage)dyn_storage"
      },
      {
        "astId": 3735,
        "contract": "contracts/RandomIpfsNft.sol:RandomIpfsNft",
        "label": "s_initialized",
        "offset": 0,
        "slot": "11",
        "type": "t_bool"
      },
      {
        "astId": 3739,
        "contract": "contracts/RandomIpfsNft.sol:RandomIpfsNft",
        "label": "s_requestIdToSender",
        "offset": 0,
        "slot": "12",
        "type": "t_mapping(t_uint256,t_address)"
      }
    ],
    "types": {
      "t_address": {
        "encoding": "inplace",
        "label": "address",
        "numberOfBytes": "20"
      },
      "t_array(t_string_storage)dyn_storage": {
        "base": "t_string_storage",
        "encoding": "dynamic_array",
        "label": "string[]",
        "numberOfBytes": "32"
      },
      "t_bool": {
        "encoding": "inplace",
        "label": "bool",
        "numberOfBytes": "1"
      },
      "t_enum(Breed)3703": {
        "encoding": "inplace",
        "label": "enum RandomIpfsNft.Breed",
        "numberOfBytes": "1"
      },
      "t_mapping(t_address,t_bool)": {
        "encoding": "mapping",
        "key": "t_address",
        "label": "mapping(address => bool)",
        "numberOfBytes": "32",
        "value": "t_bool"
      },
      "t_mapping(t_address,t_mapping(t_address,t_bool))": {
        "encoding": "mapping",
        "key": "t_address",
        "label": "mapping(address => mapping(address => bool))",
        "numberOfBytes": "32",
        "value": "t_mapping(t_address,t_bool)"
      },
      "t_mapping(t_address,t_uint256)": {
        "encoding": "mapping",
        "key": "t_address",
        "label": "mapping(address => uint256)",
        "numberOfBytes": "32",
        "value": "t_uint256"
      },
      "t_mapping(t_uint256,t_address)": {
        "encoding": "mapping",
        "key": "t_uint256",
        "label": "mapping(uint256 => address)",
        "numberOfBytes": "32",
        "value": "t_address"
      },
      "t_mapping(t_uint256,t_enum(Breed)3703)": {
        "encoding": "mapping",
        "key": "t_uint256",
        "label": "mapping(uint256 => enum RandomIpfsNft.Breed)",
        "numberOfBytes": "32",
        "value": "t_enum(Breed)3703"
      },
      "t_mapping(t_uint256,t_string_storage)": {
        "encoding": "mapping",
        "key": "t_uint256",
        "label": "mapping(uint256 => string)",
        "numberOfBytes": "32",
        "value": "t_string_storage"
      },
      "t_string_storage": {
        "encoding": "bytes",
        "label": "string",
        "numberOfBytes": "32"
      },
      "t_uint256": {
        "encoding": "inplace",
        "label": "uint256",
        "numberOfBytes": "32"
      }
    }
  }
}